S02B0000435553544F4D5F53455249414C5F434841545F53414D4231315F58504C41494E45445F50524F312E14
S3151000800010B5184B184A9A4203D0184B154A9A4283
S3151000801004D3174B174A9A4210D31EE0164B134A35
S315100080200332D21A92080132920000230D480E49EB
S31510008030CC58C45004339342FAD1EAE70F4B0C499B
S315100080400331C91A8908013189000023094C00201F
S315100080501A19106004338B42FAD1094B9847094B11
S31510008060984710BDFC370110FC3701106838011015
S31510008070D881011068380110003801106C380110D1
S315100080809D10011059C8001010B5064C2378002B0E
S3151000809007D1054B002B02D0044800E000BF012396
S315100080A0237010BD6838011000000000FC37011065
S315100080B0084B10B5002B03D00749084800E000BF55
S315100080C007480368002B00D110BD064B002BFBD0D0
S315100080D09847F9E7000000006C380110FC370110D2
S315100080E0FC370110000000000C23037000234370BE
S315100080F08370704701230370002343708370C3702D
S3151000810081330371773B83600133C36001330361AD
S31510008110013343610B3B8361C36103624362704762
S3151000812030B583B004000B7803704B7843708B78AE
S31510008130837001AD2800074B984701232B702078D8
S315100081402900054B984720780121044B984703B026
S3151000815030BDC046E98F0010F98F0010B1910010A4
S3151000816003680A4A934205D1094A10211160103159
S31510008170116007E0074A934204D1054A4021116075
S315100081804031116001221A767047C04600600040E7
S3151000819000E100E00070004010B50368174A9342F2
S315100081A006D11749802210248C5010348C5007E0C9
S315100081B0144A934204D11249802240248C508A508A
S315100081C000221A7603680D4A934209D141200E4CBB
S315100081D0A0472620A0473820A0470120A0470BE043
S315100081E0084A934208D14220074CA0472720A047AF
S315100081F03920A0470220A04710BDC04600600040AD
S3151000820000E100E000700040C197001010B504684E
S31510008210094B9847094B9C4205D10120084CA047B1
S315100082203820A04707E0074B9C4204D10220044C9B
S31510008230A0473920A04710BD99810010006000406A
S315100082402D9B001000700040F0B557464646C0B44E
S3151000825083B005008846160029600B7EDB0701D522
S3151000826000230B7628005E4B98472B685D4A934295
S3151000827009D141205C4CA0472620A0473820A047B2
S315100082800120A0470BE0594A934222D14220564C76
S31510008290A0472720A0473920A0470220A0472B68D7
S315100082A0504A934209D1524B1D6052491420524CE8
S315100082B0A04752491520A0470BE04C4A934208D1DB
S315100082C04B4B5D604E4916204B4CA0474D4917202D
S315100082D0A04701A84C4B98473400083418239A46F7
S315100082E0B24427002068431C11D03378012B02D1E9
S315100082F06A46137103E0002B01D16A461371C0B2AE
S3151000830001A9424B9847398A3878414B984704342B
S315100083105445E6D1F378424613743378012B00D1D5
S3151000832013770023AB60EB602B616B61EB61AB6184
S315100083300022AB842B842633EA540133EA540133EA
S31510008340EA54253BEB712A712B6832786A713278C0
S31510008350012A01D132799A827278042A04D1242111
S31510008360585C02435A5404E024215A5C0420824388
S315100083705A54B278012A1AD0002A04D0022A0CD0F4
S31510008380032A1ED026E02422995C022081439954A8
S31510008390995C0138814399541CE02422985C02218F
S315100083A001439954995C01208143995412E0242287
S315100083B0995C022081439954985C01210143995498
S315100083C008E02422985C022101439954985C01210B
S315100083D001439954002003B00CBC90469A46F0BD58
S315100083E00D8200100060004065940010007000407F
S315100083F030530110B9840010959F0010E5850010C8
S31510008400E986001015880010E98F0010F98F00100A
S315100084108992001003681A7A0520D20701D51970BF
S3151000842000207047F0B583B0046800266D46EE71E3
S315100084300735002C34D0002904D129008079287002
S3151000844001270BE0002A05D01720002B29D0002683
S31510008450002703E0012600276A4607322825605DBB
S31510008460C007FCD4207B207A002B14D0002578423C
S31510008470474170424641207AC007FCD508782070E3
S31510008480207BC007FCD5207910700135ADB2C91913
S315100084909219AB42EFD1237ADB06FCD5002000E01F
S315100084A01F2003B0F0BDC04610B513000022014CCA
S315100084B0A04710BD2584001010B5484B1C682368D2
S315100084C01A7B3021595C0A40D20700D485E01A7B0A
S315100084D0920623D5E279012A1DD01E212822A15405
S315100084E0253AE27112315A5C212082435A542723CD
S315100084F0E35C1B070FD52623E35C1B070BD51E2257
S315100085002823E254216812328B5C013883438B5442
S3151000851020006369984723681B795EE0E279012A97
S3151000852013D11A79628C013A92B26284628C92B239
S31510008530002A52D130215A5C202082435A540022FC
S315100085402823E254253BE37147E01B79DBB2A2698D
S315100085501370A3690133A361238C013B9BB223845F
S31510008560238C9BB2002B38D1E379002B14D12733FF
S31510008570E35C9B0731D52623E35C9B072DD50022B0
S315100085802823E254216830328B5C012083438B54BC
S31510008590E3682000984720E0E379022B1DD12533AC
S315100085A0E35C5B0719D52623E35C5B0715D52168C9
S315100085B030228B5C012083438B54094B1B78002B94
S315100085C008D00023083AA354054A137023692000E3
S315100085D0984702E00122024B1A7010BD3053011069
S315100085E08438011070B53D4B18680268137A2C2137
S315100085F0515C0B40D90736D54179012933D1C17960
S31510008600002913D1364909781170428C013A92B279
S315100086104284428C92B2002A05D104682C21625CF5
S315100086200125AA4362544279012A1CD1C279002A33
S3151000863019D0C2691178C9B20132C26102681170CB
S31510008640828C013A92B28284828C92B2002A0AD12A
S3151000865004682C32A15C0125A943A1540468A55CC9
S3151000866010212943A154DB0636D5C379012B13D12A
S315100086702633C35CDB072FD52623C35CDB072BD53C
S3151000868000222823C25401682C328B5C1024A34389
S315100086908B54836898471FE0C379022B1CD125336E
S315100086A0C35C5B0718D52623C35C5B0714D501682A
S315100086B02C228B5C1024A3438B540A4B1B78002B63
S315100086C007D00023043A8354064A13700369984767
S315100086D002E00122034B1A7070BDC04630530110E0
S315100086E0863801108438011010B5484B5C68236831
S315100086F01A7B3021595C0A40D20700D485E01A7BD8
S31510008700920623D5E279012A1DD01E212822A154D2
S31510008710253AE27112315A5C212082435A5427239A
S31510008720E35C1B070FD52623E35C1B070BD51E2224
S315100087302823E254216812328B5C013883438B5410
S3151000874020006369984723681B795EE0E279012A65
S3151000875013D11A79628C013A92B26284628C92B207
S31510008760002A52D130215A5C202082435A540022CA
S315100087702823E254253BE37147E01B79DBB2A2695B
S315100087801370A3690133A361238C013B9BB223842D
S31510008790238C9BB2002B38D1E379002B14D12733CD
S315100087A0E35C9B0731D52623E35C9B072DD500227E
S315100087B02823E254216830328B5C012083438B548A
S315100087C0E3682000984720E0E379022B1DD125337A
S315100087D0E35C5B0719D52623E35C5B0715D5216897
S315100087E030228B5C012083438B54094B5B78002B22
S315100087F008D00023083AA354054A53702369200071
S31510008800984702E00122024B5A7010BD30530110F6
S315100088108438011070B53D4B58680268137A2C21C4
S31510008820515C0B40D90736D54179012933D1C1792D
S31510008830002913D1364909781170428C013A92B247
S315100088404284428C92B2002A05D104682C21625CC3
S315100088500125AA4362544279012A1CD1C279002A01
S3151000886019D0C2691178C9B20132C2610268117099
S31510008870828C013A92B28284828C92B2002A0AD1F8
S3151000888004682C32A15C0125A943A1540468A55C97
S3151000889010212943A154DB0636D5C379012B13D1F8
S315100088A02633C35CDB072FD52623C35CDB072BD50A
S315100088B000222823C25401682C328B5C1024A34357
S315100088C08B54836898471FE0C379022B1CD125333C
S315100088D0C35C5B0718D52623C35C5B0714D50168F8
S315100088E02C228B5C1024A3438B540A4B5B78002BF1
S315100088F007D00023043A8354064A537003699847F5
S3151000890002E00122034B5A7070BDC046305301106D
S31510008910863801108438011030B54C000C19072523
S315100089202C405500AA18120180184A005118C91077
S31510008930E0252541425CAA431D0025412A434254A5
S31510008940052C0AD90131651FFF222A41455C2A40B0
S3151000895008252C1BA3401343435430BD10B51A23CE
S3151000896043431A0000210020034B9847034C002074
S31510008970A0470028FBD110BD818E00106D8E00100F
S31510008980F0B55F4656464D464446F0B493B00D904A
S31510008990119101929A461CAB1B78180006931DABD9
S315100089A01A7803921EAB1A7802920B1E00D146E17A
S315100089B0013BDBB20133109300230C93A34B1B78BE
S315100089C008935A1E9341DBB20F93C30F00277F21E2
S315100089D081427B41DBB20E930D9B0C9A9B5C069AEF
S315100089E007920F99002900D1E1E00E99002900D1D4
S315100089F0DDE000923900954A52789B1A9B001A00C6
S31510008A000A9393481B5C9B461800431E9841099095
S31510008A108F4B9446634402330B935B46082B04D961
S31510008A20D04653467F2B3BDDABE0D046099B002B4F
S31510008A3000D1A6E05346DB0F52467F2090427B4181
S31510008A40DBB2002B00D19CE055463C003A000B9B54
S31510008A501B8880484118CB5C9946802313414A46AF
S31510008A60134206D0039B009A290001987A4EB0470C
S31510008A7005E0029B009A29000198774EB047013411
S31510008A80E4B222000135EDB24346E118CB0F7F2048
S31510008A9088427B41DBB2002B73D05C45DDD370E09E
S31510008AA0490055463C003A00694B0A98844663448F
S31510008AB05B885B1819000593664B5B5C9946059BB2
S31510008AC00493802313414A46134206D0039B009A0F
S31510008AD029000198604EB04705E0029B009A2900D4
S31510008AE001985D4EB0470134E4B222000135EDB273
S31510008AF04346E118CB0F7F2088427B41DBB2002B27
S31510008B0006D007233900A3427941CBB2002BD6D128
S31510008B105D46083D002D34DD54460834E4B23B0072
S31510008B204C4A04998C466244527891464246A8466D
S31510008B30150080221A4113004A46134206D0039BA1
S31510008B40009A21000198444EB04705E0029B009A16
S31510008B5021000198404EB0475346E31A073BDBB25B
S31510008B600134E4B25919CA0F7F2088427A41D2B231
S31510008B70002A06D00122434500DB0022D2B2002A89
S31510008B80D7D1009A0699531A0133DBB21900013274
S31510008B90D2B20092079A9818C20F7F2484427A4163
S31510008BA0D2B2002A03D0089A934200D235E70D9A22
S31510008BB00C99535C254A52789B1A9B00244A9C5C5C
S31510008BC05444E3B21E1E7E2E39D8119B013B01225E
S31510008BD0994200DB0022D3B298460E9B42461342BE
S31510008BE022D00F9B002B1FD03D001B4C079B994694
S31510008BF0069B9A46089B9B4653465A19D2B2029B2D
S31510008C0031000198A0470135EDB24B46EA18D30F53
S31510008C107F2191427B41DBB2002B05D05D459B4104
S31510008C205B4242461342E7D134000134E3B29A461E
S31510008C300C9B01330C93109A9A4200D0CCE613B0D9
S31510008C403CBC90469946A246AB46F0BD3023011077
S31510008C50CC2701103C2301101989001030B58DB0B6
S31510008C60050001AC2000144B9847102323702800F0
S31510008C702C302100114B984702AC2000104B98471E
S31510008C800023A3709A332371893BA3600D3BA36124
S31510008C901322E260E361143A2261226213326261A6
S31510008CA06362220007492800074B98472800074BA4
S31510008CB098470DB030BDC046E980001021810010E4
S31510008CC0F58000100070004049820010618100108C
S31510008CD0F0B55F464E464546E0B482B081460D007B
S31510008CE090461C000193012110202A4B984705201D
S31510008CF0294B9847009480212000284B9847013D26
S31510008D00EDB2454531D240239B46244F244E6C1C70
S31510008D10E4B2630159461940E200202313400B4385
S31510008D20E2011343620010210A401343621008390E
S31510008D300A401343E21004390A4013436211023900
S31510008D400A401343DBB2E10919430098B84769009A
S31510008D504919090149443022009D2800B0470021D5
S31510008D602800B8472500A045D1D8002101980B4B03
S31510008D709847DC20084CA04700211020054B984747
S31510008D80FA208000A04702B01CBC90469946A34624
S31510008D90F0BDC046B19100105D8900101584001019
S31510008DA0A9840010F8B50700012110200A4DA84724
S31510008DB005200A4CA04720213800094EB047002153
S31510008DC03800B047AA20A04700211020A847FA2053
S31510008DD08000A047F8BDC046B19100105D89001013
S31510008DE015840010C0235B01C118FF2206E0027033
S31510008DF001309842FBD11800994202D0030030335B
S31510008E00F5E7704710B50D4B1B7D002B07D00122DF
S31510008E100A4B1A730A4B1B68002B00D09847342351
S31510008E20064AD35C002B07D001212C23D154054BC5
S31510008E301B68002B00D0984710BDC046001000409C
S31510008E40883801108C380110012303700373022235
S31510008E5042704273837083730022C270C2730371AF
S31510008E6003748260426102767047C046002802D1C0
S31510008E70024B586801E0014B586A704700100040D9
S31510008E80002807D1002902D1064B1A6009E0054BCC
S31510008E909A6106E0002902D1024B1A6201E0014BE9
S31510008EA09A63704700100040002805D1064A117ACF
S31510008EB080230B43137205E003492822885C802324
S31510008EC003438B547047C0460010004070B5040031
S31510008ED00420394B98472378002B02D1237B002B93
S31510008EE065D03649CA6820231343CB60227E8B692E
S31510008EF00320024012012D30834313438B612378E4
S31510008F00002B26D063780121002B03D0023B5D4253
S31510008F105D41A901A278520002252A40E3789B0000
S31510008F200A352B401A4315000D432379002B01D027
S31510008F3020231D43224BA2681A601D721F49C422AA
S31510008F405200885C012303438B5400201D4B984725
S31510008F5000E00025237B002B29D0637B002B05D056
S31510008F60012B05D0022B04D1402502E0012500E09B
S31510008F700025A37B5B0002211940E27B92000C23A3
S31510008F8013400B431D43237C002B01D020231D438C
S31510008F9062690B4B1A6228229D5408496132FF32CE
S31510008FA0885C022303438B540120064B98470649DD
S31510008FB01E20064B984770BD2D9B001000B0004038
S31510008FC000100040A98E0010058E0010959F00100D
S31510008FD0002802D1024B196001E0024B196070475C
S31510008FE0883801108C38011000230370012242705A
S31510008FF08370C3707047C04670B51723012800D818
S31510009000C8E0072809D8644D6A6C103B03409B00E2
S3151000901007249C40A2436A6429E00F2809D85E4DB4
S31510009020AA6C072303409B0007249C40A243AA6412
S315100090301DE0172809D8584DEA6C072303409B00FA
S3151000904007249C40A243EA6411E003002C3B032B47
S315100090500DD8524D8224E4002A5D120701269E4047
S31510009060120F2B5DB2430F26B34313432B55030048
S315100090701D3B022B29D84B78012B08D1474D2B7D50
S315100090801F24241A0122A24093432B7508E0434C57
S31510009090257D1F22121A012393402B43DBB2237521
S315100090A0CA780023002A75D03C490C881F22101A52
S315100090B080000133834023439BB20B80384A1178DA
S315100090C002230B431370002364E00A78002A40D170
S315100090D00F2808D8012383409BB2324A938200237B
S315100090E01F2857D812E01F2807D80F220240012345
S315100090F093409BB22C4A938208E00F2318400E3BF4
S3151000910083409BB2294A9382002343E04B78012B7C
S315100091100CD0002B02D0022B10D03AE01E490A6D5B
S315100091200123834013430B65002333E01A490B6D6B
S315100091300122824093430B6500232BE0164B596D99
S315100091400122824011435965196D91431965002317
S3151000915020E00023012A1DD10F2806D801338340B1
S315100091609BB2104A1382002314E01F2808D80F233D
S3151000917018400E3B83409BB20B4A1382002309E032
S315100091800F2318400E3B83409BB2084A13820023DC
S3151000919000E01723180070BD00B0004000F000403A
S315100091A000E0004000000140001001400030014086
S315100091B010B50F2810D8002907D01D4A9188012311
S315100091C083400B439BB2938031E019498B8801226F
S315100091D0824093438B802AE01F2814D8002909D097
S315100091E014498C880F2210400123834023439BB2DD
S315100091F08B801CE00F498B880F2210400E3A82405C
S3151000920093438B8013E0002909D00B498C880F22D9
S3151000921010400123834023439BB28B8007E006490D
S315100092208B880F2210400E3A824093438B8010BDDC
S315100092300000014000100140003001400F2807D8FF
S315100092400E4A9188012383404B409BB2938014E0D1
S315100092501F2809D80A4A91880F2318400E3B8340CD
S315100092604B409BB2938008E0064A91880F23184022
S315100092700E3B83404B409BB29380704700000140E9
S31510009280001001400030014070B50D0AFF2319404F
S31510009290072833D84E4A546CF83B03409B000726E8
S315100092A09E40B4435464546C0E009E4033002343D6
S315100092B05364012900D08AE003280FD81100D02268
S315100092C052008C5803231840C0003C3383409C4303
S315100092D08C508B5885401D438D5078E03C49D222E6
S315100092E052008C5803231840C0003C3383409C43E3
S315100092F08C508B5885401D438D5068E00F2832D80E
S31510009300334A946C072303409B0007269E40B443C0
S315100093109464946C0E009E40330023439364012999
S3151000932055D10B280FD81100D42252008C58032384
S315100093301840C0003C3383409C438C508B5885406A
S315100093401D438D5043E02249D62252008C580323E8
S315100093501840C0003C3383409C438C508B5885404A
S315100093601D438D5033E0172831D8194AD46C072382
S3151000937003409B0007269E40B443D464D46C0E0071
S315100093809E4033002343D364012920D113280FD8DC
S315100093901100D82252008C5803231840C0003C33C9
S315100093A083409C438C508B5885401D438D500EE056
S315100093B0074ADA235B00D15803242040C0003C340E
S315100093C08440A143D150D15885400D43D55070BD2E
S315100093D000B0004001280DD0002802D002281CD071
S315100093E02EE0184A90690C2303439361164A174BD3
S315100093F01A601AE0134B9869082202439A619A6917
S31510009400042082439A61124A536880200003034362
S315100094105360104A0D4B1A6007E00A4A93690C20F4
S3151000942083439361084A094B1A60064B9A690320D5
S3151000943082439A619A69014011439961002000E0C4
S315100094401720704700B0004080BA8C0138530110C5
S3151000945000F0004080841E00014B18687047C0461B
S315100094603853011000B5352800D9A2E18000D24B3F
S315100094701B589F46D14AD16802230B43D360002064
S3151000948098E1CE4AD16804230B43D360002091E1C2
S31510009490CA4AD16808230B43D36000208AE1C74A21
S315100094A0D16810230B43D360002083E1C34AD168EF
S315100094B020230B43D36000207CE1C04AD16880236F
S315100094C00B43D360002075E1BC4AD3688021490064
S315100094D00B43D36000206DE1B84AD368802109019F
S315100094E00B43D360002065E1B44AD368802149015B
S315100094F00B43D36000205DE1B04AD3688021890117
S315100095000B43D360002055E1AC4AD3688021C901D2
S315100095100B43D36000204DE1A84AD368802109028D
S315100095200B43D360002045E1A44AD3688021490249
S315100095300B43D36000203DE1A04AD3688021890205
S315100095400B43D360002035E19C4AD3688021C902C1
S315100095500B43D36000202DE1984AD368802109037C
S315100095600B43D360002025E1944AD3688021490338
S315100095700B43D36000201DE1904AD36880218903F4
S315100095800B43D360002015E18C4AD3688021C903B0
S315100095900B43D36000200DE1884AD368802109046B
S315100095A00B43D360002005E1844AD3688021490427
S315100095B00B43D3600020FDE0804AD36880218904E4
S315100095C00B43D3600020F5E07C4AD3688021C904A0
S315100095D00B43D3600020EDE0784AD368802109055B
S315100095E00B43D3600020E5E0744AD3688021490517
S315100095F00B43D3600020DDE0704AD36880218905D3
S315100096000B43D3600020D5E06C4AD3688021C9058E
S315100096100B43D3600020CDE0684A116901230B4348
S3151000962013610020C6E0654A116902230B431361DA
S315100096300020BFE0614A116904230B431361002027
S31510009640B8E05E4A116908230B4313610020B1E0AC
S315100096505A4A116910230B4313610020AAE0574A96
S31510009660116920230B4313610020A3E0534A1169AB
S3151000967040230B43136100209CE0504A116980235C
S315100096800B431361002095E04C4A13698021490071
S315100096900B43136100208DE0484A1369802189002D
S315100096A00B431361002085E0444A13698021C900E9
S315100096B00B43136100207DE0404A136980210901A4
S315100096C00B431361002075E03C4A13698021490160
S315100096D00B43136100206DE0384A1369802189011C
S315100096E00B431361002065E0344A13698021C901D8
S315100096F00B43136100205DE0304A13698021090293
S315100097000B431361002055E02C4A1369802149024E
S315100097100B43136100204DE0284A1369802189020A
S315100097200B431361002045E0244A13698021C902C6
S315100097300B43136100203DE0204A13698021090381
S315100097400B431361002035E01C4A1369802149033D
S315100097500B43136100202DE0184A136980218903F9
S315100097600B431361002025E0144A13698021C903B5
S315100097700B43136100201DE0104A13698021090470
S315100097800B431361002015E00C4A117D01230B4396
S31510009790137500200EE0094A117D02230B43137541
S315100097A0002007E0054A117D04230B4313750020A2
S315100097B000E0172000BDC0464829011000B0004047
S315100097C000B5352800D97DE18000BF4B1B589F4658
S315100097D0BE4AD36802218B43D360002073E1BB4A93
S315100097E0D36804218B43D36000206CE1B74AD36859
S315100097F008218B43D360002065E1B44AD368102159
S315100098008B43D36000205EE1B04AD36820218B439E
S31510009810D360002057E1AD4AD36880218B43D360D3
S31510009820002050E1A94AD168A94B0B40D360002013
S3151000983049E1A64AD168A74B0B40D360002042E10C
S31510009840A24AD168A44B0B40D36000203BE19F4A4B
S31510009850D168A24B0B40D360002034E19B4AD168FB
S315100098609F4B0B40D36000202DE1984AD1689D4B49
S315100098700B40D360002026E1944AD1689A4B0B40E6
S31510009880D36000201FE1914AD168984B0B40D360FA
S31510009890002018E18D4AD168954B0B40D36000200B
S315100098A011E18A4AD168934B0B40D36000200AE13C
S315100098B0864AD168904B0B40D360002003E1834A5F
S315100098C0D1688E4B0B40D3600020FCE07F4AD168F4
S315100098D08B4B0B40D3600020F5E07C4AD168894B56
S315100098E00B40D3600020EEE0784AD168864B0B40DF
S315100098F0D3600020E7E0754AD168844B0B40D360F3
S315100099000020E0E0714AD168814B0B40D360002003
S31510009910D9E06E4AD1687F4B0B40D3600020D2E06D
S315100099206A4AD1687C4B0B40D3600020CBE0674A73
S31510009930D1687A4B0B40D3600020C4E0634AD168EB
S31510009940774B0B40D3600020BDE0604A13690121BC
S315100099508B4313610020B6E05C4A136902218B43E6
S3151000996013610020AFE0594A136904218B43136138
S315100099700020A8E0554A136908218B431361002083
S31510009980A1E0524A136910218B43136100209AE01B
S315100099904E4A136920218B431361002093E04B4AF2
S315100099A0136940218B43136100208CE0474A1369E9
S315100099B080218B431361002085E0444A1169444B92
S315100099C00B40136100207EE0404A1169554B0B4055
S315100099D01361002077E03D4A1169534B0B40136128
S315100099E0002070E0394A11693A4B0B401361002090
S315100099F069E0364A1169384B0B401361002062E06A
S31510009A00324A1169354B0B40136100205BE02F4A37
S31510009A101169334B0B401361002054E02B4A116936
S31510009A20304B0B40136100204DE0284A11692E4B34
S31510009A300B401361002046E0244A11692B4B0B4062
S31510009A40136100203FE0214A1169294B0B40136135
S31510009A50002038E01D4A1169264B0B401361002087
S31510009A6031E01A4A1169244B0B40136100202AE099
S31510009A70164A1169214B0B401361002023E0134A4B
S31510009A8011691F4B0B40136100201CE00F4A11692E
S31510009A901C4B0B401361002015E00C4A137D01216D
S31510009AA08B43137500200EE0084A137D02218B4369
S31510009AB01375002007E0054A137D04218B431375A7
S31510009AC0002000E0172000BD202A011000B0004041
S31510009AD0FFFEFFFFFFF7FFFFFFEFFFFFFFDFFFFFB9
S31510009AE0FFBFFFFFFF7FFFFFFFFFFEFFFFFFFDFF33
S31510009AF0FFFFFBFFFFFFF7FFFFFFEFFFFFFFDFFF9C
S31510009B00FFFFBFFFFFFF7FFFFFFFFFFEFFFFFFFD12
S31510009B10FFFFFFFBFFFFFFF7FFFFFFEFFFFFFFDF7B
S31510009B20FFFFFFBFFFFDFFFFFFFBFFFF00B5432851
S31510009B3000D923E28000E04B1B589F46DF4B596843
S31510009B4002229143596059680A435A60002016E26E
S31510009B50DA4B596804229143596059680A435A608E
S31510009B6000200CE2D54B5968082291435960596878
S31510009B700A435A60002002E2D04B596810229143E2
S31510009B80596059680A435A600020F8E1CB4B59686E
S31510009B9020229143596059680A435A600020EEE129
S31510009BA0C64B596840229143596059680A435A6016
S31510009BB00020E4E1C14B59688022914359605968ED
S31510009BC00A435A600020DAE1BC4B5968BC4A0A4085
S31510009BD05A605A68802149000A435A600020CEE133
S31510009BE0B64B5968B74A0A405A605A6880218900AC
S31510009BF00A435A600020C2E1B04B5968B24A0A4083
S31510009C005A605A688021C9000A435A600020B6E19A
S31510009C10AA4B5968AD4A0A405A605A688021090110
S31510009C200A435A600020AAE1A44B5968A84A0A4080
S31510009C305A605A68802149010A435A6000209EE101
S31510009C409E4B5968A34A0A405A605A688021890176
S31510009C500A435A60002092E1984B59689E4A0A407E
S31510009C605A605A688021C9010A435A60002086E169
S31510009C70924B5968994A0A405A605A6880210902DB
S31510009C800A435A6000207AE18C4B5968944A0A407C
S31510009C905A605A68802149020A435A6000206EE1D0
S31510009CA0864B59688F4A0A405A605A688021890241
S31510009CB00A435A60002062E1804B59688A4A0A407A
S31510009CC05A605A688021C9020A435A60002056E138
S31510009CD07A4B5968854A0A405A605A6880210903A6
S31510009CE00A435A6000204AE1744B5968804A0A4078
S31510009CF05A605A68802149030A435A6000203EE19F
S31510009D006E4B59687B4A0A405A605A68802189030B
S31510009D100A435A60002032E1684B5968764A0A4075
S31510009D205A605A688021C9030A435A60002026E106
S31510009D30624B5968714A0A405A605A688021090470
S31510009D400A435A6000201AE15C4B59686C4A0A4073
S31510009D505A605A68802149040A435A6000200EE16D
S31510009D60564B5968674A0A405A605A6880218904D6
S31510009D700A435A60002002E1504B5968624A0A4071
S31510009D805A605A688021C9040A435A600020F6E0D6
S31510009D904A4B59685D4A0A405A605A68802109053B
S31510009DA00A435A600020EAE0444B5968584A0A4070
S31510009DB05A605A68802149050A435A600020DEE03D
S31510009DC03E4B5968534A0A405A605A6880218905A1
S31510009DD00A435A600020D2E0384B59684E4A0A406E
S31510009DE05A605A688021C9050A435A600020C6E0A5
S31510009DF0324A53685B005B0853605368802109063A
S31510009E000B4353600020BAE02C4B1A8901218A4378
S31510009E101A81198901220A431A810020AFE0274BC3
S31510009E201A8902218A431A81198902220A431A8140
S31510009E300020A4E0214B1A8904218A431A8119892A
S31510009E4004220A431A81002099E01C4B1A89082122
S31510009E508A431A81198908220A431A8100208EE042
S31510009E60164B1A8910218A431A81198910220A431E
S31510009E701A81002083E0114B1A8920218A431A8106
S31510009E80198920220A431A81002078E00B4B1A897F
S31510009E9040218A431A81198940220A431A810020D7
S31510009EA06DE0064B1A8980218A431A81198980220E
S31510009EB00A431A81002062E0F82A011000B000401F
S31510009EC0FFFEFFFFFFFDFFFFFFFBFFFFFFF7FFFF9B
S31510009ED0FFEFFFFFFFDFFFFFFFBFFFFFFF7FFFFF6C
S31510009EE0FFFFFEFFFFFFFDFFFFFFFBFFFFFFF7FF7B
S31510009EF0FFFFEFFFFFFFDFFFFFFFBFFFFFFF7FFF4C
S31510009F00FFFFFFFEFFFFFFFDFFFFFFFBFFFFFFF75A
S31510009F10FFFFFFEFFFFFFFDFFFFFFFBF184B1989A2
S31510009F20184A0A401A811989802252000A431A8156
S31510009F30002024E0124B1989134A0A401A81198904
S31510009F40802292000A431A81002018E00C4B1989CE
S31510009F500E4A0A401A8119898022D2000A431A81B0
S31510009F6000200CE0064B1989094A0A401A81198902
S31510009F70802212010A431A81002000E0172000BD3A
S31510009F8000B00040FFFEFFFFFFFDFFFFFFFBFFFFDE
S31510009F90FFF7FFFF8023DB049C46604480000160CE
S31510009FA07047C04670B5204B1C6823681D7DEDB206
S31510009FB06A0613D51E212222A1541A7E23318A4302
S31510009FC01A762123E35C1B0706D52023E35C1B07C7
S31510009FD002D520002369984723681B7CEB0722D5FE
S31510009FE023681B7CDBB2626913706369013363619A
S31510009FF0A38B013B9BB2A383A38B9BB2002B12D1E5
S3151000A0002133E35C5B070ED52023E35C5B070AD59F
S3151000A01000222223E2542268137E01218B431376F9
S3151000A020E3682000984770BD3C53011070B5214B72
S3151000A0301C6823681D79EDB2EA0717D5A269117855
S3151000A040C9B20132A2611970E38B013B9BB2E38363
S3151000A050E38B9BB2002B09D12268137A01218B4323
S3151000A06013722268117A10230B431372EB0612D562
S3151000A0702123E35CDB070ED52023E35CDB070AD53F
S3151000A08000222223E2542268137A10218B43137282
S3151000A090200063689847AB060AD52123E35C9B072B
S3151000A0A006D52023E35C9B0702D5A36820009847BA
S3151000A0B070BDC0463C53011070B5204B5C682368D8
S3151000A0C01D7DEDB26A0613D51E212222A1541A7ED9
S3151000A0D023318A431A762123E35C1B0706D52023F6
S3151000A0E0E35C1B0702D520002369984723681B7C75
S3151000A0F0EB0722D523681B7CDBB262691370636998
S3151000A10001336361A38B013B9BB2A383A38B9BB2E9
S3151000A110002B12D12133E35C5B070ED52023E35CC1
S3151000A1205B070AD500222223E2542268137E0121FE
S3151000A1308B431376E3682000984770BD3C5301109B
S3151000A14070B5214B5C6823681D79EDB2EA0717D507
S3151000A150A2691178C9B20132A2611970E38B013B71
S3151000A1609BB2E383E38B9BB2002B09D12268137A4F
S3151000A17001218B4313722268117A10230B43137239
S3151000A180EB0612D52123E35CDB070ED52023E35C17
S3151000A190DB070AD500222223E2542268137A102103
S3151000A1A08B431372200063689847AB060AD52123A8
S3151000A1B0E35C9B0706D52023E35C9B0702D5A368C7
S3151000A1C02000984770BDC0463C530110E1235B0246
S3151000A1D003600023037143718371C371023383607B
S3151000A1E00322C26001320261013242618361C3619E
S3151000A1F0036243627047C046F8B54F464646C0B440
S3151000A200050017000160002343608360C36003618B
S3151000A2104361836100228383C3832033C254013395
S3151000A220C2540133C254554B994218D10920544C8B
S3151000A230A0470A20A0470920524CA0470A20A04751
S3151000A240514B1D6051491020514CA04751491120C6
S3151000A250A047514B01221A6001321A601AE04F4B87
S3151000A260994217D10B20464CA0470C20A0470B2033
S3151000A270444CA0470C20A047434B5D604849122030
S3151000A280434CA04747491320A047434B04221A606A
S3151000A29004321A60FB7904229046002B52D1023305
S3151000A2A098464FE0318A01CEC0B2C8470134E4B2B5
S3151000A2B04445F7D32B681A7DD20704D501211A7CA1
S3151000A2C01A7D0A42FBD1002120229954FB79591E8E
S3151000A2D08B4159013B797A7913430B43BA79022A98
S3151000A2E00DD0D1B2022902D8012A05D00FE0032AD7
S3151000A2F008D0042A09D00AE00222134307E00622F6
S3151000A300134304E00A22134301E00E2213432022D2
S3151000A31029688B543E68244B984704003100234B20
S3151000A320984782B20004000C7043201A3109884203
S3151000A33006D900230133DBB2401A8842FAD807E067
S3151000A340002305E03E0008360024194B9946A9E77C
S3151000A350002128202C68215401331B075B0FD200E3
S3151000A36013439BB22A6893842B6819762B6819724B
S3151000A37000200CBC90469946F8BDC04600400040EF
S3151000A3802D9B0010659400103C530110A59F0010E2
S3151000A390959F00102DA0001000E100E00050004035
S3151000A3A0B9A0001041A1001059940010FDFF001033
S3151000A3B0899200100268012013790342FCD01170B3
S3151000A3C00020704702680120137D0342FCD0137CE5
S3151000A3D00B7000207047C0461723002A0DD00B3390
S3151000A3E0C35CDBB2052B08D0828341610522222390
S3151000A3F0C2540368043A1A76002318007047C04600
S3151000A4009300C3185960202101239340425C1343E3
S3151000A4104354704710B5212201238B40845C23439B
S3151000A4208354012904D10268117A20230B43137235
S3151000A43010BDC04610B501228A402124035D934306
S3151000A4400355012904D10268137A1F318B43137205
S3151000A45010BDC046F0B5474680B40C0090460028A3
S3151000A4600DD1002A0EDD8F18084E094D30682100D7
S3151000A4702B6898470134A742F8D1404603E00120E3
S3151000A480404200E0002004BC9046F0BD4C53011041
S3151000A49044530110F0B5474680B40E00150001383C
S3151000A4A0022811D8002A12D000240C4B98460C4FC3
S3151000A4B043461868315D3B689847002809DB01342C
S3151000A4C0A542F5D1200006E00120404203E000201D
S3151000A4D001E00120404204BC9046F0BD4C530110EF
S3151000A4E0485301100300064A1268002A02D1054992
S3151000A4F0034A1160024A1068C31813607047C046B9
S3151000A50090380110D8890110012040427047C0468A
S3151000A51080239B014B6000207047C0460120704786
S3151000A520002070470022024B9A7100207047C046E7
S3151000A530505301100020704710B501001822024830
S3151000A540024B9847002010BD6A53011007110110E5
S3151000A55010B5010018220248024B9847002010BD82
S3151000A560825301100711011010B50100162202487E
S3151000A570024B9847002010BD9A5301100711011085
S3151000A58080B50C4FBD4401000B4A02A80B4B9847EF
S3151000A5906B461B896A46D380937A13710E236B44DC
S3151000A5A00093074B1B6868469847002084239B003E
S3151000A5B09D4480BDF0FDFFFF06020000071101104B
S3151000A5C0B05301100020704710B50100134C122231
S3151000A5D02000134B9847083CA379002B1BD1114C34
S3151000A5E00133E37102221F33E254200021300E3270
S3151000A5F00D490B4B984723002033208A0B4A012123
S3151000A6000B4CA047041E06D00A480B4B9847210056
S3151000A6100A480B4B9847002010BDC04658530110EE
S3151000A6200711011050530110082C0110FFFF0000F4
S3151000A630ADD70010902C011049120110942C011066
S3151000A6402911011010B582B0010001AC04222000BE
S3151000A650194B9847E3780A2B2AD101AB9B78032B29
S3151000A6600ED1164BDA8B998B188A154B9847002802
S3151000A6701ED01448144B98471448154B984717E0AA
S3151000A680052B10D10D4BDA8BD98E013189B2588E2C
S3151000A690104B984700280BD00A480B4B98470E488A
S3151000A6A00B4B984704E0072B02D10122034B9A71FA
S3151000A6B0002002B010BDC046071101105053011002
S3151000A6C005D80010902C011049120110C42C01104D
S3151000A6D0291101102DD80010EC2C0110F0B587B0FF
S3151000A6E005AC01262670002565700E480E4FB8473A
S3151000A6F00C48B8470D4B4C22995A023A985A029672
S3151000A7000195009402230022094CA047E22805D1A6
S3151000A7100448054B98470748074B9847002007B051
S3151000A720F0BDC046902C0110491201105053011073
S3151000A73055D80010082D011029110110014B186071
S3151000A740998070475053011010B50F4B99881868AF
S3151000A7500E4B98470E4A002100200E4CA0470E4A79
S3151000A76001210020A0470D4A02210020A0470C4BD2
S3151000A7709847041E06D00B480B4B984721000B48F0
S3151000A7800B4B984710BDC0465053011049BA0010E4
S3151000A790442C011031B100101C2C01109C2D0110FD
S3151000A7A09DB90010902C011049120110382D01107E
S3151000A7B02911011010B50300084A92888A4206D35F
S3151000A7C0064A108A0A001900054B984704E0034907
S3151000A7D0088A1900024B984710BDC0465053011005
S3151000A7E0C5BA001010B584B0002302930D4B019327
S3151000A7F0C823DB00009300230022012100200A4C0D
S3151000A800A047002806D10948094B984709480A4B22
S3151000A810984705E00548064B98470848064B984761
S3151000A82004B010BD8F020000C9D50010902C011085
S3151000A83049120110602D011029110110802D0110EF
S3151000A840014B18607047C046B05301100020704786
S3151000A85000207047C078002800D0E2207047C0461C
S3151000A8600020704710B50078002806D00348044B26
S3151000A87098470448044B9847E22010BD902C0110CD
S3151000A88049120110482F01102911011010B50400AA
S3151000A890C078002808D00548054B9847A27821882B
S3151000A8A00448054B9847E22010BDC046902C011075
S3151000A8B0491201105C2F011029110110F8B504007E
S3151000A8C0194B9B2292009D180127002618001A008A
S3151000A8D0563A11882288914219D11A78052A01D040
S3151000A8E0082A01D1077012E0072A0FD892000F49E3
S3151000A8F08A5897461E700E4A1278002A07D00C4ABC
S3151000A9001278013AD2B20A490A7000E006707C3316
S3151000A910AB42DBD10748084B98472288A1780748F5
S3151000A920074B98470020F8BD2A540110C42D01107A
S3151000A93038560110902C011049120110942F011055
S3151000A94029110110F8B506000188284B00241A8930
S3151000A9508A4204D11A005E321278062A2ED00134A9
S3151000A960E4B27C33052CF2D139E0204963011A1B7D
S3151000A97092008A18157614005E34072323701C483B
S3151000A9801C4B98471C481D4B9847E2252BE018484E
S3151000A990184B98471A48194B9847144963011A1BC4
S3151000A9A092008A1810005E3008270770F07810752C
S3151000A9B0B2781C1BA4000C19227614E0B578002D71
S3151000A9C0E5D0D2E70A4E30000A4DA8470C480B4C8A
S3151000A9D0A0473000A8470B48A047E22503E0B5780A
S3151000A9E0002DC2D1EEE72800F8BDC046CC530110A9
S3151000A9F0902C011049120110C42F011029110110B9
S3151000AA00D82F0110FC2F011010B50100154B1B7823
S3151000AA10DBB2132B12D8134C2378DBB29800C01874
S3151000AA20C000C318104818182922104B98472378CD
S3151000AA3023780133DBB22370002311E00C480D4B51
S3151000AA4098470D480D4B98470D4B9847E223002821
S3151000AA5006D00748074B98470A48084B9847E22301
S3151000AA60180010BD78410110B056011007110110E1
S3151000AA70902C0110491201102430011029110110D7
S3151000AA8005D700105C300110F8B54F464646C0B4E5
S3151000AA90050041883A4B00241A898A4204D11A00CB
S3151000AAA05E321278032A62D00134E4B27C33052C6C
S3151000AAB0F2D12BE063011C1BA400314B1C195E3430
S3151000AAC02378012B13D92F482F4B98472F48304BFB
S3151000AAD09847688813212F4B9847061E4BD0294854
S3151000AAE0294B98472C482A4B9847E22643E00026E4
S3151000AAF041E0244E3000244DA8472848244CA04756
S3151000AB003000A8472648A047E22634E02B79002BD0
S3151000AB10D0D1EEE71B481C4B984720481C4B984752
S3151000AB202A78174B994667013B1B9B004B441A75B5
S3151000AB302A791A765E3305221A70381B800048442B
S3151000AB403630290022310B32164B98469847381B5F
S3151000AB50800048444630290032311722C047381B3E
S3151000AB60800048441A30A91D1C22C04703E02E79E4
S3151000AB70002ECFD09EE730000CBC90469946F8BD0B
S3151000AB80CC530110902C0110491201107430011091
S3151000AB902911011025D7001094300110B030011082
S3151000ABA0DC3001100711011010B50088782301223E
S3151000ABB00121024CA047002010BDC04645D7001009
S3151000ABC0F0B557464E464546E0B484B00400092217
S3151000ABD0002101A86B4B984725886B490A00002372
S3151000ABE01089A84216D110005E300078022811D1C3
S3151000ABF065485A01D61AB60086195E360622327094
S3151000AC00F93213405A01D21A92008218127DD007D7
S3151000AC1005D41BE001337C32052BE1D11EE0E07830
S3151000AC20002813D05901C91A8B005749C9181A316F
S3151000AC302088564B9847002800D19DE05448554B24
S3151000AC4098475548554B9847E22095E05A01D31A34
S3151000AC509B004D4AD3185E3302221A7025880022B3
S3151000AC60002316000889A8420DD108005E3000782E
S3151000AC70022808D15201921B9600434A92195E325D
S3151000AC800321117005E00133DBB201327C31052B53
S3151000AC90E7D101AA02211172E17891700121517058
S3151000ACA0033111701F005A01D21A92003649525CB4
S3151000ACB0022A04D101AA03219171D17103E001AADC
S3151000ACC001219171D17101AA1021517111717A016D
S3151000ACD0D21B92002C498A18127E402A34D15A016E
S3151000ACE0D31A9B009A461E0060367618554668356C
S3151000ACF06D182B4B99460F239846C8474346184064
S3151000AD003070C84743461840B0740136AE42F4D18D
S3151000AD10564670361C4AB618214B99460F2398464C
S3151000AD20C8474346184028700135B542F8D11C4B28
S3151000AD3098477B01DB1B9B00134AD3181A0070320D
S3151000AD4010807A3310221A707A01D71BBF00603731
S3151000AD500D4ABA182088002301A9124CA0470028D2
S3151000AD600AD001AB00229A705A700948094B9847CD
S3151000AD700D480A4B9847E22004B01CBC90469946F1
S3151000AD80A246F0BD19110110CC530110FDE30010BD
S3151000AD90902C0110491201100C31011029110110CB
S3151000ADA05D12011011E2001024310110F0B55F465A
S3151000ADB056464D464446F0B485B083460488494A03
S3151000ADC0002100231089A0420DD110005E300078BA
S3151000ADD0022808D14A01521A9500424A52195E3287
S3151000ADE00321117005E00133DBB201317C32052BF2
S3151000ADF0E8D101AA02211172013991705170002116
S3151000AE001170D1701F005A01D21A92003549525C46
S3151000AE10022A04D101AA03219171D17103E001AA7A
S3151000AE2001219171D17101AA1021517111717A010B
S3151000AE30D21B92002B498A18127E402A31D15A0110
S3151000AE40D31A9B009A461D0060356D185446683417
S3151000AE506418254B99460F26C84730402870C847B6
S3151000AE603040A8740135A542F6D1554670351D4AB5
S3151000AE70AD181D4B99460F239846C84743461840B0
S3151000AE8020700134AC42F8D1174B98477B01DB1B7D
S3151000AE909B00144AD3181A00703210807A3310228D
S3151000AEA01A707A01D71BBF0060370E4ABA185B4674
S3151000AEB01888002301A90D4CA04700280AD001AB21
S3151000AEC000229A705A700A480A4B98470A480B4B48
S3151000AED09847E22005B03CBC90469946A246AB4640
S3151000AEE0F0BDC046CC5301105D12011011E20010E6
S3151000AEF0902C011049120110503101102911011026
S3151000AF00F0B585B0050006223D4902A83D4EB04772
S3151000AF1001AC042229002000B047E378002B62D14F
S3151000AF2039483A4B98473A483A4B984700263A4C94
S3151000AF30FF271E20A047C3B2002B1AD1324F38006C
S3151000AF40324EB0473548334CA0473800B0473448E6
S3151000AF50A04728881321334B98470300E220002B83
S3151000AF604CD02948294B98472F482A4B9847E2201E
S3151000AF7044E01A00303A092ADBD802AAB354384002
S3151000AF802A4B98470136062E26D0D2E71E481F4B6D
S3151000AF90984727481F4B98470024244E02ABE05C85
S3151000AFA0B0470134062CF9D101AB9978288802AA4A
S3151000AFB0204B9847002821D01348144B98471E4819
S3151000AFC0144B9847002019E00F48104B98471B4820
S3151000AFD0104B9847002011E00B480C4B9847184827
S3151000AFE00C4B9847D8E701AB5A8880235B009A42EE
S3151000AFF0CCD001AB9B78012BE6D0002005B0F0BD7C
S3151000B000F02E011007110110902C01104912011099
S3151000B010783101102911011005BD0010A031011061
S3151000B020AC31011025D70010943001105D110110BC
S3151000B030C031011041E30010F83101101032011037
S3151000B0402C320110F8B5060005882F4B002200247B
S3151000B05010001989A94216D119005E310978012903
S3151000B06011D929495201101A800008185E3006239A
S3151000B07003706201131B9B00CB1870331A887388F8
S3151000B0809A4213D106E00134E4B201327C33052C26
S3151000B090DED10BE06101091B89001B4B5918723177
S3151000B0A0301D0822194B9847002815D0184F380024
S3151000B0B0184EB0471848194DA8473800B0471848D9
S3151000B0C0A84763011C1BA4000F4B1C1920890521DE
S3151000B0D0144B9847E22016E06201131B9B00603365
S3151000B0E009495B18141BA4000C19217D3088012214
S3151000B0F00D4CA047002806D00548064B98470B482C
S3151000B100064B98470020F8BDCC530110E9100110EA
S3151000B110902C011049120110403201102911011012
S3151000B1207832011025D7001075E40010D0320110C6
S3151000B13030B5002A47D0062947D88900284B5B58D6
S3151000B1409F46284B05240AE0274B012407E0274B8E
S3151000B150052404E0264B012401E0264B0524002893
S3151000B16016D1196800290BD106E01D000433181FEB
S3151000B1700068002806D100E01D002A6001212CE09D
S3151000B180043300210131C9B2A142EED3002124E0DB
S3151000B1900021012821D119688A420CD106E01D0030
S3151000B1A00433181F0068824207D100E01D000023F7
S3151000B1B02B60012111E0043300210131C9B2A142F3
S3151000B1C0EDD3002109E0002107E0002105E00A4B3C
S3151000B1D00524C4E7094B0124C1E7080030BDC04669
S3151000B1E0E42D0110B8530110B45301103C56011050
S3151000B1F0F05B01105056011064560110AC56011048
S3151000B200F0B55F4656464D464446F0B491B005003B
S3151000B21000247E4B1C60072200217D487D4EB047DE
S3151000B220122200217C48B0477C4A00217C48B04756
S3151000B2307C4B1C70CD22920000217B48B0477B4B83
S3151000B2401C708322920000217948B047794B9B46A7
S3151000B2508023DB009A461A0000215846B047764BE9
S3151000B260994680235B0198461A0000214846B0474C
S3151000B270724F1C2200213800B0475B46BB60534614
S3151000B280FB604B463B6143467B616D4B1C605C60CB
S3151000B2909C60DC601C616B4B1C605C609C60DC60BD
S3151000B2A01C61694B1C605C609C60DC601C61674BB8
S3151000B2B01C60674B1C60674B1C605C609C60DC60AC
S3151000B2C01C61654B1C60654C9B239B009846A044F3
S3151000B2D0504F40267C2200212000B84723005E33C1
S3151000B2E000221A7026767C34A045F3D15C4B1A7076
S3151000B2F0524C4A4B63604A4B23605A485A4B984704
S3151000B3005A485B4B984720005A4B984700280BD059
S3151000B310544E3000544DA8475748554CA04730005E
S3151000B320A8475648A047FEE7554A00210020554C2D
S3151000B330A047554A02210020A04708215348544BE4
S3151000B3409847002805D04748474B98475148484BDF
S3151000B350984707225049083104A8504B984726228F
S3151000B360002106A82B4B9847002D0CD104A84C4B56
S3151000B370984704AD002806D03A483B4B98474948B1
S3151000B3803B4B984704AD3748374B98472B796A792A
S3151000B390A9792878039068780290A8780190E878BF
S3151000B3A000904148324CA04706AC0A2323703F4B0D
S3151000B3B063800722290007A8384B98470023E376B5
S3151000B3C023776377A377E3772384638480239B00B3
S3151000B3D0A3842000364B9847002805D02148224BDD
S3151000B3E098473448224B98472800334B98470028F3
S3151000B3F005D01C481C4B984730481D4B984711B038
S3151000B4003CBC90469946A246AB46F0BD744101102D
S3151000B4107C4101101911011078560110E204000048
S3151000B420943C011078410110B0560110A856011035
S3151000B430E459011094380110844101108C56011002
S3151000B4405056011064560110B8530110AC56011035
S3151000B450B45301103C560110F05B0110CC5301108F
S3151000B46038560110902C011049120110F0320110BB
S3151000B470291101103DD3001004330110243301109B
S3151000B4805C35011031B10010202F0110603301100E
S3151000B49055D200106C330110F02E01100711011057
S3151000B4A089D20010843301109C330110983A0000A1
S3151000B4B0ADD20010D4330110F1D40010F8330110BE
S3151000B4C010B501220121064B9847002806D00548E1
S3151000B4D0054B98470548064B9847E22010BDC046D5
S3151000B4E0BDE30010902C01104912011034340110E4
S3151000B4F029110110F0B55F464E464546E0B49AB0A4
S3151000B5000500867A002E00D0C6E07548754FB847FC
S3151000B5102B796A79A97968780290A8780190E878E9
S3151000B52000907148714CA0476D48B84729897048FA
S3151000B530A047122229006F486F4B9847049507229F
S3151000B54029006E486E4B9847002800D1ADE02B7845
S3151000B550022B00D0A9E05022002106A8694B98477B
S3151000B560694F00230BE0591C147806A8C454013205
S3151000B5708BB2B342F7D17C37331E502B04D01E004A
S3151000B5801036B6B23A00EEE706AA290005205F4B40
S3151000B5909847061E00D19CE05148524B98475C488C
S3151000B5A0524B9847E22694E0E7B205940722049995
S3151000B5B04846D847002809D1059A53019B1A9A0084
S3151000B5C0544B9B185E3302221A702BE001347C23F5
S3151000B5D09C46E144052CE7D172E01C001178002945
S3151000B5E01AD101E00024002763019946181B800038
S3151000B5F0484B98464044122229003F4B9847464AEA
S3151000B60013780133DBB213704B461B1B9B0043446C
S3151000B6105E3302221A7005E0791CCFB201337C32F8
S3151000B620052FDAD1072229003448354B98470028D0
S3151000B6300CD17B01DB1B9B00364AD31805229A746A
S3151000B640023200212D482F4B984742E0314B984645
S3151000B6507C01E31B9B0043440A229A74033A00219F
S3151000B6602648284B9847E41BA4004444A37C0A2B85
S3151000B6702FD10DE01A481B4B9847274B1978C9B2A2
S3151000B68026481A4B984728891321254B984720E0BE
S3151000B6902889244B98471CE01148124B9847A97AE1
S3151000B6A02148124B9847002613E01B4B1B78DBB240
S3151000B6B0042BDFD8174B99460024114B9B4673E792
S3151000B6C05E23144AD35C002B8CD0184A0123012721
S3151000B6D083E730001AB01CBC90469946A346F0BDCD
S3151000B6E0902C011049120110543401102911011027
S3151000B6F09834011078560110071101107C41011081
S3151000B700E9100110191101101254011051D700102F
S3151000B710B0340110CC53011038560110D434011036
S3151000B72025D70010C1B4001010350110A654011011
S3151000B730F0B5474680B40378002B41D12F4D002435
S3151000B740461C2F4F102229003000B84700283FD042
S3151000B7500134E4B27C35052CF4D131E0DDB21C00A5
S3151000B7601178002922D101E000240025254B9846A6
S3151000B7706601371BBF004744122223493800234B6A
S3151000B7809847234A13780133DBB213705E370223CE
S3151000B7903B70341BA40044440833A3746B015D1B37
S3151000B7A0AD004544AB7C0A2B23D104E001337C3237
S3151000B7B0052BD3D11DE0144B1889164B984718E06A
S3151000B7C05E23104AD35C002BCED0134A0123C5E763
S3151000B7D00C4863011A1B9200821811005E31022573
S3151000B7E00D700A219174100012220749074B9847D1
S3151000B7F0E1E7002004BC9046F0BDC046125401108B
S3151000B800E9100110CC5301107856011007110110E0
S3151000B81038560110C1B40010A6540110F8B50D0029
S3151000B8203B2872D883003C4AD3589F468400002692
S3151000B8303A4FBB59002B04D01B59002B01D02800BE
S3151000B84098470436142EF4D165E01338C4B2A40018
S3151000B8500026334FBB59002B04D01B59002B01D0A7
S3151000B860280098470436142EF4D154E01D38C4B27B
S3151000B870A40000262B4FBB59002B04D01B59002BBC
S3151000B88001D0280098470436142EF4D143E0273807
S3151000B890C0B2254B1B68002B3DD08000C358002B2F
S3151000B8A039D00800984736E02D38C0B21F4B1B68B8
S3151000B8B0002B30D08000C358002B2CD0080098479E
S3151000B8C029E03638C4B2A4000026194FBB59002B04
S3151000B8D004D01B59002B01D0280098470436142E8B
S3151000B8E0F4D118E03838C0B2124B1B68002B12D0B6
S3151000B8F08000C358002B0ED0080098470BE00E4B63
S3151000B9001B68002B07D0984705E00C4D28000C4CFF
S3151000B910A0472800A047F8BD002E01105056011070
S3151000B92064560110B8530110AC560110B4530110EF
S3151000B9303C560110F05B011074410110902C01105F
S3151000B9404912011070B504000D4B1B78012B01D163
S3151000B9500C4B984722000C490C480D4B9847040095
S3151000B9600500074B1B78012B01D10A4B9847002D78
S3151000B97004D1064B18780449074B9847200070BD30
S3151000B9808341011021C50010E4590110A856011079
S3151000B990E5CA0010F9C400101DB80010F0B54F46E6
S3151000B9A080B490B008AD07236B701B4C10221B4956
S3151000B9B0222068441A4B9946984711262E7009275B
S3151000B9C0AF74EF740DAA174B03CB03C215236A4647
S3151000B9D05370102211496B46981CC8476B461E704F
S3151000B9E09F74FF236A46D37405AA2300243303CB1E
S3151000B9F003C21C236A461C2128000B4CA0470028B2
S3151000BA0005D00A480A4B98470A480B4B984700201E
S3151000BA1010B004BC9146F0BDF02E0110002F01109D
S3151000BA20071101106033011045D50010902C01103C
S3151000BA30491201103835011029110110014B1860F7
S3151000BA407047C04674410110F0B54F464646C0B423
S3151000BA5083B081460E00174C022398462370601C53
S3151000BA60154D10222900154FB8470023638243460F
S3151000BA70A37520001730290014311022B84710235F
S3151000BA8023854B46E3622686668622223423E254B9
S3151000BA9021001231333B019323001433009300230A
S3151000BAA000222000064CA04703B00CBC90469946D5
S3151000BAB0F0BDC046F45B0110A83501100711011046
S3151000BAC075DF0010F0B583B007000D0016006B4649
S3151000BAD0991D00230B8001AA0233138048331A489C
S3151000BAE0C05A1A4B9847041E07D01948194B984745
S3151000BAF019481A4B9847200023E06B4606331B88DB
S3151000BB000020012B1DD1104B988A32002900144BAE
S3151000BB109847041E07D00E480E4B984711480F4BF6
S3151000BB20984720000DE0084B998A38000E4B98472D
S3151000BB30041E06D00648074B98470C48074B9847F3
S3151000BB40200003B0F0BDC046F45B0110D1DF001039
S3151000BB50902C011049120110D03501102911011035
S3151000BB6095DF00100436011035E10010383601104B
S3151000BB7010B50E4B1B78012B0BD102220B4B1A70F2
S3151000BB800B4B1B68002B10D102210A480A4B984711
S3151000BB900BE0074B1B68002B07D0084C2078984702
S3151000BBA0012221000348064B984710BD8851011009
S3151000BBB090510110445C011035A400108C510110F5
S3151000BBC0D9A3001070B506000D00034C29003000F3
S3151000BBD0A0470028FAD170BDC5A3001070B50600A5
S3151000BBE00D00034C29003000A0470028FAD170BD83
S3151000BBF0B5A3001070B500210020194B9847194CB9
S3151000BC002000194B9847E1235B0223600223A360AF
S3151000BC100322E2600132226101326261A361E361B3
S3151000BC2023626362114D124B1D60124A124B1A6049
S3151000BC30124A134B1A60220012492800124B9847D9
S3151000BC40124E336898680021114CA0473368586823
S3151000BC500021A04702220F4928000F4B984770BDBC
S3151000BC60D5930010685C0110CDA10010445C011042
S3151000BC704C530110DDBB001048530110C5BB00101A
S3151000BC804453011000400040F9A10010643801101F
S3151000BC90D512011071BB001001A40010F0B583B0CD
S3151000BCA005000D4CA047A0470C4FB8470C4E0D4A47
S3151000BCB00D4BB04700900191FA2080006843B847B9
S3151000BCC002000B0000980199B047084B9847084BA3
S3151000BCD0186003B0F0BDC04659940010590D0110FC
S3151000BCE051010110C7AEFE19EFD8093F1501011019
S3151000BCF084510110024B1A68501E18607047C046D6
S3151000BD008451011070B504000122114B1A70114BA9
S3151000BD101B68002B03D102210F48104B98472000B7
S3151000BD200F4B98470F4900230B7001220A480E4B00
S3151000BD309847074C0D4D2378022B02D0A8470028B0
S3151000BD40F9D10022024B1A70064B187870BDC04606
S3151000BD508851011090510110445C011015A4001077
S3151000BD609DBC00108C510110D9A30010F5BC001019
S3151000BD7010B5064B1860064C02212000054B98475B
S3151000BD80012205492000054B984710BD905101101E
S3151000BD90445C011015A400108C510110D9A3001099
S3151000BDA0024B1A68026018607047C046985101101D
S3151000BDB030B50B4B1C68002C11D025681D60002374
S3151000BDC02360A160E280A080064B1A68002A02D187
S3151000BDD01C6004E01A001368002BFBD1146030BD00
S3151000BDE09851011094510110F0B5574680B482B0A5
S3151000BDF0824601911600154B1C68002C08D1144D73
S3151000BE001F000020A84700903C68002CF9D001E0E4
S3151000BE10002300930D4B22681A60A38852461380A4
S3151000BE203288E388191C9BB2934200D9111C8AB23E
S3151000BE303180A1680198074B98472000064B984718
S3151000BE40009802B004BC9246F0BDC0469451011051
S3151000BE5095C2001007110110A1BD001070B5002386
S3151000BE60064A1360064A1360064C26007836064DBD
S3151000BE702000A8470C34B442FAD170BD9851011075
S3151000BE80945101109C510110A1BD001070B5040011
S3151000BE90134B1D68134B1B6898470C2C1FD00C3C7A
S3151000BEA0E388052B1BD0EB0714D40F4B1B6802201D
S3151000BEB098470E4B1B6898470D4C032023689847EC
S3151000BEC00028FAD10B4B1B680230984701220A4B07
S3151000BED01A6004E0094B1868094B1B68984770BD37
S3151000BEE0ECB10040445201103C5201104C5201106A
S3151000BEF0285201103052011020B000403452011067
S3151000BF002452011010B5064B064A196811605A687A
S3151000BF10054B1A60054B1B68002B00D0984710BDC7
S3151000BF20905C01100CB0004010B000406C5F011026
S3151000BF3070B5322200210D480D4B984700210B4851
S3151000BF40012502244A001154821853782B43DBB280
S3151000BF50A343537001311929F4D1044B5A78183977
S3151000BF608A435A70DA788A43DA7070BDAC5C011075
S3151000BF7019110110064A1168064B0B401360064A48
S3151000BF80136006490868064B03400B605360704700
S3151000BF900CB00040D30FFEFF905C011010B00040B3
S3151000BFA0C0E7FFFFF0B557464E464546E0B44F4B47
S3151000BFB01B78002B04D04D4B1B78012B00D18CE045
S3151000BFC04B4B98474B4B9847002398464A4B424653
S3151000BFD01A604A4C8023802212049246E250802234
S3151000BFE052049146E250464D464B2B60464B474A0B
S3151000BFF013604749474A1160474A1168474A11601A
S3151000C000474A1168474A11604749484A11604849EA
S3151000C010484A1160484F494A3A604949494A1160AD
S3151000C02049494A4A11604A4E4A4A32604A494B4A7D
S3151000C03011604B494B4A11604B494C4A11604C49AF
S3151000C0404C4A11604C494D4A1160282098474C497A
S3151000C05028202B6898472B684A49272098474A4B2F
S3151000C0601A684A4B1A604A4A4A4B1A604A4A4B4B5C
S3151000C0701A604B4A4B4B1A604B4A4C4B1A604C4A4F
S3151000C0804C4B1A604C4A4D4B1A604D4A4D4B1A6038
S3151000C090A022920000214C484C4B984780229200D7
S3151000C0A04B4B1A804B4B9847534623604B462360A5
S3151000C0B0494B42461A603B68484A1A603368484AF8
S3151000C0C01A600020474CA0470120A0470220A04735
S3151000C0D00122064B1A70002003E00122034B1A704E
S3151000C0E001201CBC90469946A246F0BD2C52011068
S3151000C0F031BF001075BF00104852011000E100E07A
S3151000C100605F0110D7070000BD0700009C5C01109E
S3151000C11051BC0100645F0110BC00041020520110D4
S3151000C120B80004101C5201109FB90100985C011050
S3151000C130DBB90100A45C0110745F01103C0004100F
S3151000C140C01F0410A85C0110C41F0410705F0110FA
S3151000C150685F0110D41F0410D81F0410A05C0110D2
S3151000C160E9CB01003C5201108FCD01003052011075
S3151000C170A3CE01004C520110CFCB01002852011062
S3151000C18019C60010ADC50010E40004104452011089
S3151000C190E99F010054520110DDDB01002452011009
S3151000C1A05BDC010038520110EC050410345201100A
S3151000C1B0E3D5010040520110200C04105852011012
S3151000C1C0099F010018520110E05C011019110110AD
S3151000C1D0785F01105DBE00106C5F011005BF001086
S3151000C1E075C600105DC60010044B1A780523012A87
S3151000C1F002D1034B18600023180070472C5201100F
S3151000C2004852011070B504000E4B1B68002B02D06B
S3151000C210408898476080E388A288618820880A4D04
S3151000C2202D68A8470500E288002A02D1074B9847D7
S3151000C23006E021000831064B98472800034B984723
S3151000C24070BDC04620520110545201108DBE001010
S3151000C2500711011070B515001C000A0202430A4BA3
S3151000C2601E6823000521A020C000B047061E0AD074
S3151000C270002C05D0002D03D022002900034B98472F
S3151000C2803000034B984770BD54520110071101102E
S3151000C2908DBE0010F0B55F4656464D464446F0B486
S3151000C2A087B0441E00239946E31C1CD80D2200219A
S3151000C2B002A8824B9847332302AA1370303B53705F
S3151000C2C093700233137193711472230A5372230CF1
S3151000C2D09372240ED472012313730D211000784B20
S3151000C2E098470123994600240025764F764E7749C4
S3151000C2F0386833689847002800D088E0734B1C686C
S3151000C300A3889A46CD239B009A4500D1C7E023897E
S3151000C3109B46638998464B46002B11D00D2200216F
S3151000C32002A8664B9847332302AA1370303B53700A
S3151000C33093700233137193710D211000604B98475F
S3151000C340A023DB009A4521D1614B1B884344A022D0
S3151000C3509200934202DD803A5D4B1A805C4B9A46FE
S3151000C3601D885C4BED1821000C31424628005A4BB3
S3151000C3709847424629005846584B984753461B88BB
S3151000C380434452461380002402253AE0544B1B685E
S3151000C390002B32D04D4B1A689388CD2189008B42E1
S3151000C3A004D14B460124002B2BD028E04D4C494D8F
S3151000C3B025602B701B0A6B7010894B4B1B689847B6
S3151000C3C02871000A68712068404B1A68D28842802A
S3151000C3D01D686B89C380083020606A89002A03D0E3
S3151000C3E029000C313C4B9847698908313C4B1B6836
S3151000C3F0384898470024032503E0002401E0002470
S3151000C400D025324B1868394B1B68984700E0072532
S3151000C410002C00D06BE74B46002B46D0294B1E68EC
S3151000C420002E04D100231C6A002C31D13DE0346A61
S3151000C43014239C46B4446346604600932C4B1B68F9
S3151000C4409847002C1FD00027CD239B009846274BDA
S3151000C4509A46200003689B88434510D1002F06D0CA
S3151000C4608368BB6053461B689847B86809E08368C1
S3151000C47033621E4B1B6801939847306A01E0070030
S3151000C48080680028E6D11B4B1B68009898470CE083
S3151000C49014230093164B1B6814209847D3E7104BB0
S3151000C4A01B680024002BACD07BE7280007B03CBCEF
S3151000C4B090469946A246AB46F0BDC04619110110EA
S3151000C4C005C20010585201104052011014520110AA
S3151000C4D0785F0110E05C011007110110B1BD00106A
S3151000C4E048520110505201101C52011018520110DE
S3151000C4F0385201102452011010B5034B1B688020CE
S3151000C50000029847082010BD985C011010B5034B27
S3151000C5101B688020C0019847002010BDA45C011044
S3151000C52010B5054C8020C0012368984723688020E9
S3151000C53000029847002010BDA45C011030B5184ABF
S3151000C540138F9BB2108D80210902014311851000B3
S3151000C550144D01240022DB05DB0D11D0DBB259424C
S3151000C5600B40012B06D011005B080131C9B2012B1B
S3151000C570FAD100E0110023008B409BB2038703E041
S3151000C580038F2B439BB20387038FDB05DB0DE2D1B1
S3151000C590802149008133FF33034AD15030BDC04654
S3151000C5A0001001400080FFFF00E100E030B5174A9F
S3151000C5B0138F9BB2108D8021090201431185100043
S3151000C5C0134D01240022DB05DB0D11D0DBB25942DD
S3151000C5D00B40012B06D011005B080131C9B2012BAB
S3151000C5E0FAD100E0110023008B409BB2038703E0D1
S3151000C5F0038F2B439BB20387038FDB05DB0DE2D141
S3151000C60080218133FF33034AD15030BD00000140F1
S3151000C6100080FFFF00E100E010B50C4B1B8F5B0B99
S3151000C62010D00B4B1B689847084A138F118F5B0B62
S3151000C6305B030B43138780214900C0235B00054A27
S3151000C640D15001E0044B984710BDC0460010014080
S3151000C650645F011000E100E03DC5001003230228CD
S3151000C66004D880000022024BC250002318007047E5
S3151000C6707C5F011010B504000378012B08D1114B13
S3151000C6801B68002B00D09847FF2322689A4322602C
S3151000C6906378012B08D10B4B5B68002B00D09847B1
S3151000C6A0094B226813402360A378012B08D1054B50
S3151000C6B09B68002B00D09847044B226813402360D8
S3151000C6C010BDC0467C5F0110FF00FFFFFFFF00FF9B
S3151000C6D00020704710B5024B9847002010BDC04689
S3151000C6E0E5A7001070B50D2818D1194B1B88002B23
S3151000C6F02DD0184C220001210B38174DA847962231
S3151000C70000212000154B98470022114B1A8014481F
S3151000C710144B98472020144B984718E00C4C23884C
S3151000C7205A1C22800B4AD0540F4B98472388952BBE
S3151000C7300DD9084C220001210220074DA847962248
S3151000C74000212000054B98470022014B1A8070BD2E
S3151000C7505C520110C077011055C20010191101105A
S3151000C760902C0110491201105D11011010B5A8B0DE
S3151000C7709622002101A80A4B98479E246C4427AAAA
S3151000C78001A92000074B9847228881235B009A4213
S3151000C79004D127AB198801A8034B984728B010BDC0
S3151000C7A019110110E9BD0010B5A70010F0B54746E4
S3151000C7B080B484B004001B4E30001B4DA8473000D7
S3151000C7C0A847236898462679002E13D0B5B2002DB7
S3151000C7D00AD01C00013DADB201354544134F2078F7
S3151000C7E0B8470134AC42FAD10E4D28000E4CA04782
S3151000C7F02800A0470E4C0F4B1B7802930E4B1B784C
S3151000C8000193012300932200310040460B4DA847A7
S3151000C8100B4B8022012120000A4CA04704B004BC17
S3151000C8209046F0BD902C0110491201105D110110B7
S3151000C830C05F01102D2301102C23011081890010D7
S3151000C840885F0110D18C001010B51420014B984749
S3151000C85010BDC0463D92001070B588B0374B984752
S3151000C860374B9847374B98473748384B984738488F
S3151000C870384B984796213848384B98470020384B04
S3151000C88098470020374B9847374B9847374A00212F
S3151000C8900020374B98473748374B98473748384B1F
S3151000C8A098473848384B984701AC2000374B984783
S3151000C8B00123237021001020354DA8472100142094
S3151000C8C0A84700211020334DA84700211420A8475F
S3151000C8D02000314B98470023A360304A6261E37011
S3151000C8E06370E3730233637320002D4B98472D4911
S3151000C8F001202D4B98478022D2012C4B1A602C4CCC
S3151000C90020002C4B984720002B4DA8472000A84705
S3151000C9102000A84729482A4B98472A4B1B78002BFA
S3151000C92008D001267642284D264C3000A847237899
S3151000C930002BFAD1002008B070BDC046A5BF00106C
S3151000C940F9C40010F5BB0010902C0110491201100B
S3151000C9505C36011029110110C07701103DA7001097
S3151000C96001B2001049A70010E5A700108836011083
S3151000C97031B10010ADC7001041A800106DC70010EE
S3151000C9803DBA0010E5C6001071BD0010E98F001009
S3151000C990F98F0010B1910010498E001040AC27009D
S3151000C9A0CD8E001049C80010D18F001000E100E0B4
S3151000C9B0885F01105D8C0010A58D0010C05F0110FE
S3151000C9C0E58D0010FC37011045B9001070B5124DF9
S3151000C9D02C68002C14D02668E2602E6000250F4AC1
S3151000C9E0238113682560A080E180AB4201D11460D9
S3151000C9F011E01A68002A01D0131CFAE71C600AE03D
S3151000CA00C4B2002C07D1064CE26001222381054BEB
S3151000CA10A080E1801A7070BD785201107452011016
S3151000CA20605201107052011010B5084B0009000138
S3151000CA301A680818814203D00A600A1C1031F9E7F7
S3151000CA401A600022024B1A6010BDC04678520110BF
S3151000CA507452011038B51B4C031C2588081C211C68
S3151000CA609D4207D1A588854204D101235B422380CC
S3151000CA70A26009E04C889C420AD18C88844207D176
S3151000CA8001235B424B808A600F4B9847012017E0C9
S3151000CA900E498B420ED00E498B4207D00D4900200D
S3151000CAA08B420DD1101C0C4B9847EFE7111C0B4B0A
S3151000CAB0002202E0111C0022094B984743425841BC
S3151000CAC038BDC046587C011099E50010130E0000C1
S3151000CAD0150E0000010E000009E90010C9EA001049
S3151000CAE0A1EB00100023F0B587B004920370049BED
S3151000CAF00390013B0D1C0593033302D80498AE4BEB
S3151000CB009847059BAD4C033302D90023029315E0D9
S3151000CB10002302932368002B13D1029BD02B00D144
S3151000CB20DAE20498A64B984702900228F2D13FE029
S3151000CB300498A34B98470290022839D02368002BFB
S3151000CB40F6D0029BD02B00D1C6E2029B033B5A1EA5
S3151000CB509341029A5B421A4023680292002B00D13D
S3151000CB60C2E21A68DE682260DA880192954A9C88C9
S3151000CB70116813601960944B1B78012B0FD1934BDE
S3151000CB80924A9888D988D2681B89914FB847102243
S3151000CB90904B8E480021984700238B4A1370029BB6
S3151000CBA0002B14D18C4B9C4209D08C4B9C4227D124
S3151000CBB03A23039A1370002302931D1C07E0019B6E
S3151000CBC0A34200D08AE23823039A13702E60039B87
S3151000CBD01B783B2B01D1824B9847039B1B783B2B31
S3151000CBE003D0059B033304D983E2029B002B88D024
S3151000CBF0F7E7029BD02B00D17BE27A4B984778E27D
S3151000CC00019BBB2B25D1BB2C23D16B461B89AB803B
S3151000CC10B3787278F0781B02134371793279A87061
S3151000CC2071482B80834206D8704A93420BD2704AC1
S3151000CC30934208D009E06F48834206D10B02134392
S3151000CC40AB80372302E0362300E00023039A1370EB
S3151000CC50BDE7694B9C4200D144E165D8674B9C42C5
S3151000CC6000D1D5E12FD8664B9C4200D1E0E113D814
S3151000CC70644B9C4200D1A3E104D83826B44200D1BB
S3151000CC8025E217E1604B9C4200D19FE1FE33FF3352
S3151000CC909C4200D1D3E10DE15C4B9C4200D1A9E14D
S3151000CCA008D85B4B9C4200D196E15A4B9C4200D16E
S3151000CCB099E1FFE0584B9C4200D1A2E1574B9C42B0
S3151000CCC000D1D4E1F6E0564B9C4200D1C8E112D80F
S3151000CCD0544B9C4200D1D1E104D8534B9C4200D115
S3151000CCE09BE1E7E0514B9C4200D1ADE1504B9C4299
S3151000CCF000D1B0E1DEE04F4B9C4200D1E0E009D814
S3151000CD00083B9C4200D1D7E04B4B39269C4200D1C0
S3151000CD10DDE1CFE0D1231B019C4200D1D6E0474B89
S3151000CD209C4200D1D8E0C5E0454B9C4200D117E1AA
S3151000CD302ED8444B9C4200D13DE112D8424B9C4226
S3151000CD4000D1E8E004D8033B9C4200D1D0E0B1E02A
S3151000CD503E4B9C4200D1D0E03D4B9C4200D1F9E0C5
S3151000CD60A8E03C4B9C4200D1DBE008D83A4B9C42F1
S3151000CD7000D11BE1394B9C4200D1D8E09AE0384BE8
S3151000CD809C4200D1D8E0374B9C4200D1DBE091E0C9
S3151000CD90354B9C4200D1F7E076D8344B9C4200D1FB
S3151000CDA0F8E069D8324B9C4200D1E0E0314B9C420E
S3151000CDB000D1A9E07EE0C046D1E500107452011002
S3151000CDC095C2001078520110705201106052011075
S3151000CDD0CDC9001019110110FFFF0000FEFF000061
S3151000CDE00DC50010D3E500101E2000001D20000008
S3151000CDF0030C00001F2000001C0D00000C0C00008E
S3151000CE00020C0000020A0000030A0000060C0000D3
S3151000CE10040C0000050C0000070C0000090C0000B3
S3151000CE20170C0000120C00000D0C0000130C000073
S3151000CE30150C0000080D0000010D0000150D000076
S3151000CE401B0E00000F0E0000030E0000060E000061
S3151000CE500A0E0000150E0000110E0000130E000041
S3151000CE60170E0000190E0000270E0000210E0000FC
S3151000CE701C0E00001D0E00009F4B9C427ED09F4B47
S3151000CE809C4200D18CE015E09D4B9C4200D10AE1FA
S3151000CE9008D89C4B9C4200D1F7E09B4B9C4200D19A
S3151000CEA0FAE007E0994B9C4200D103E1984B9C4273
S3151000CEB000D106E100260AE1301C291C954B14E02E
S3151000CEC0301C291C944B9847042600E1301C291C61
S3151000CED0924B98470126FAE0301C291C904B984734
S3151000CEE00F26F4E0301C291C8E4B9847061CEEE0EA
S3151000CEF00198311C2A1C8C4B17E0311C01982A1CF6
S3151000CF008A4B98471126E2E0311C01982A1C884B5F
S3151000CF1098471226DBE0301C291C864B98470626BC
S3151000CF20D5E0311C2A1C0198834B9847DEE70198FF
S3151000CF30311C2A1C814BF8E7311C01982A1C804BA6
S3151000CF4098470D26C3E0311C01982A1C7D4B984743
S3151000CF500E26BCE00198311C2A1C7B4B984784E0B6
S3151000CF60311C01982A1C794B98470B26AFE0311CCF
S3151000CF7001982A1C764B98471026A8E0301C291CCD
S3151000CF80744B98472826A2E0301C291C724B9847F0
S3151000CF9029269CE0301C291C704B9847272696E0C2
S3151000CFA0301C291C6E4B98472A2690E00198311C9C
S3151000CFB02A1C6C4BB9E70198311C2A1C6A4BB4E742
S3151000CFC0301C291C694B98472B2680E0301C291CE5
S3151000CFD0674B98472C267AE0311C01982A1C654B22
S3151000CFE09847132673E0311C01982A1C624B984708
S3151000CFF014266CE0311C01982A1C604B98471526A4
S3151000D00065E0311C01982A1C5D4B984716265EE098
S3151000D0100198311C2A1C5B4B87E7311C01982A1C8E
S3151000D020584B9847A988061C574B288898474EE0B6
S3151000D030311C01982A1C554B9847232647E0019826
S3151000D040311C2A1C524B70E7019B301C1F0A2F8083
S3151000D050291C504B49E70198311C2A1C4E4B64E79A
S3151000D060301C291C019A4D4B98473B262FE0311C4A
S3151000D07001982A1C4A4B9847182628E0311C01981B
S3151000D0802A1C484B9847202621E0311C01982A1C5F
S3151000D090454B984733261AE0311C01982A1C434BFE
S3151000D0A09847302613E0311C01982A1C404B9847AC
S3151000D0B034260CE0311C01982A1C3E4B9847352625
S3151000D0C005E0311C01982A1C3B4B98473226039BDE
S3151000D0D01E70002302937AE5D023FBE7019B029E84
S3151000D0E0BB2B00D0E6E6F2E7029B002B00D06EE5E4
S3151000D0F0E0E6029807B0F0BD220E0000250E0000F3
S3151000D100051B0000011B0000031B0000061B00008E
S3151000D110081B0000FDF30010E1F300107DF600106F
S3151000D1206DF7001091F7001075E70010F5EF00107D
S3151000D13071F000102DEA0010C9EA0010A1EB0010E2
S3151000D14029EE0010C9EE001081EF0010A9EF0010B3
S3151000D150BFEF001089F00010B7F00010CDF00010EE
S3151000D160F7F0001025EF00104FEF0010B5E100109A
S3151000D170E1E10010C9FA001005FB00104DFB00108C
S3151000D18091FB0010C5FB001089FA001091FC0010ED
S3151000D19019FC001099E0001005E10010C9E000101C
S3151000D1A0A1FC0010E1FC0010A9FF0010B3FF001055
S3151000D1B0B9FF0010BFFF0010CBFF0010F7B50E49E6
S3151000D1C000240B680F1C1E1C0C4A15680192002BBC
S3151000D1D00ED09A881968824207D1002C01D021609E
S3151000D1E000E00E1C1D601D1C231C1C1C0B1CEEE7F6
S3151000D1F0019B3E601D60F7BD7452011078520110FC
S3151000D200F7B5124A0090136811481F1C0021844676
S3151000D21004680192002B14D0D888009A1D68060A5B
S3151000D22096420BD1FD2606400C2E07D1002901D0BF
S3151000D2300D6000E02F1C1C601C1C0B1C191C2B1CE9
S3151000D240E8E7019B1F6063461C60F7BD745201102E
S3151000D2507852011030B5CF23002810D04A1E1F2A4D
S3151000D2600DD8084A131CAA33198000231C1CC55C50
S3151000D270AC3401331555DCB28C42F7D30023181C9D
S3151000D28030BDC046F67C011010B5041CCF20002C12
S3151000D29006D0044BCE38211C9847034B1B792370BC
S3151000D2A010BDC04691F20010F67C0110F0B506795B
S3151000D2B089B0CF25032E38D8037811350F2B34D8E3
S3151000D2C08023878C113D9B009F422ED8C57F837F7C
S3151000D2D0AD015B011D43C37E1D43437F1B011D43EF
S3151000D2E0037F9B001D43124BEDB21E710379023B67
S3151000D2F0012B01D802230371041C231C0B336188F4
S3151000D30007932379007800930195258C621D029569
S3151000D310658C079B03950497064DA8472671051C37
S3151000D320211C03482622044B9847281C09B0F0BD3F
S3151000D330F67C011089F1001007110110F0B587B0C5
S3151000D34003AF54490B22544B041C381C9847052232
S3151000D350524B40261A800023514A1360514A1370CB
S3151000D360514A1370514B9847514B9847514B984718
S3151000D370514B9847002C00D189E0A368002B00D1AF
S3151000D38085E02369002B00D181E02068002802D1B6
S3151000D3906368002B7BD1494B61689847484B984787
S3151000D3A0012801D9E22672E04648474B98470028E3
S3151000D3B0F8D1201C454B9847E068A168444B984724
S3151000D3C06B460122DC1C201C01A95242414B984796
S3151000D3D0002802D12378392BF2D13F4B9847061EED
S3151000D3E055D1031C01213D4A49429A1812335181E5
S3151000D3F0902BF7D13A4C813B23703A4B3A4A6380D3
S3151000D400002323710133581E190101430233117091
S3151000D4100132212BF7D1E033FF33A384231C0025DF
S3151000D42073331D70231C72331D70231C76331D70CD
S3151000D430231CCC331D80221CA023D0325B0013800A
S3151000D440221CCE321380231CD2331D80FA22231CB9
S3151000D4505200D4331A80231CD6331D70201C234B44
S3151000D460E57625776577A577E577258465849847EA
S3151000D470231C072274331A70231C0432AA331A8011
S3151000D4802B1C7A5DAC330135E2540B2DF8D1301CD0
S3151000D49007B0F0BDD436011007110110647C0110DD
S3151000D4A02453011084520110FD370110F1FC0010B5
S3151000D4B0A1D70010F5DE0010A9E1001031DF001031
S3151000D4C0A5BF0010A9E40010E9C1001051E5001035
S3151000D4D029CA0010E5CA001019F10010667C011067
S3151000D4E0F67C0110983A0000017D0110ADD20010B3
