:020000041000EA
:1080000010B5184B184A9A4203D0184B154A9A4299
:1080100004D3174B174A9A4210D31EE0164B134A4B
:108020000332D21A92080132920000230D480E4901
:10803000CC58C45004339342FAD1EAE70F4B0C49B1
:108040000331C91A8908013189000023094C002035
:108050001A19106004338B42FAD1094B9847094B27
:10806000984710BDB05B0110B05B01102C5C011093
:1080700078A601102C5C0110B45B0110305C01107B
:1080800001210110E1D7001010B5064C2378002B18
:1080900007D1054B002B02D0044800E000BF0123AC
:1080A000237010BD2C5C011000000000B05B0110BB
:1080B000084B10B5002B03D00749084800E000BF6B
:1080C00007480368002B00D110BD064B002BFBD0E6
:1080D0009847F9E700000000305C0110B05B011028
:1080E000B05B011000000000012303704370FA230D
:1080F000DB0143607047C046024A116810230B43FE
:108100001360704700D0004010B5044B9847044BF3
:108110001B68002B00D0984710BDC046F9800010A6
:10812000485C0110014B18607047C046485C011064
:10813000F0B583B000222B4B1A730378022B05D1C4
:10814000284A117B01330B43137305E0012B03D144
:10815000244A117B0B431373234B1A6853001FD01F
:10816000214D00272C26FF368021C9012F60019761
:108170000197019BB34206D8C046019B013301938E
:10818000019BB342F8D944780B00002C03D1802323
:108190009B0000E02A681342FCD12A685300E5D115
:1081A0004378002B05D1104B42685A6001221A60B7
:1081B00004E00D4B42685A6002221A604378012B9A
:1081C00009D10949E022D2010B6813409342FBD147
:1081D0000022054B1A6005492B20054B984703B038
:1081E000F0BDC04600E0004000D000400981001012
:1081F000D5AC00100C2303700023437083707047CC
:1082000001230370002343708370C37081330371B3
:10821000773B83600133C360013303610133436102
:108220000B3B8361C36103624362704730B583B027
:1082300004000B7803704B7843708B78837001AD2A
:108240002800074B984701232B7020782900054B05
:10825000984720780121044B984703B030BDC046B1
:10826000919B0010A19B0010599D001003680A4AC1
:10827000934205D1094A102111601031116007E0C5
:10828000074A934204D1054A4021116040311160F0
:1082900001221A767047C0460060004000E100E00D
:1082A0000070004010B50368174A934206D1174981
:1082B000802210248C5010348C5007E0144A9342D2
:1082C00004D11249802240248C508A5000221A7610
:1082D00003680D4A934209D141200E4CA047262045
:1082E000A0473820A0470120A0470BE0084A93424E
:1082F00008D14220074CA0472720A0473920A0479B
:108300000220A04710BDC0460060004000E100E030
:108310000070004001A5001010B50468094B984793
:10832000094B9C4205D10120084CA0473820A047AA
:1083300007E0074B9C4204D10220044CA04739209F
:10834000A04710BDA5820010006000406DA800107D
:1083500000700040F0B557464646C0B483B00500F3
:108360008846160029600B7EDB0701D500230B76BB
:1083700028005E4B98472B685D4A934209D1412003
:108380005C4CA0472620A0473820A0470120A047EA
:108390000BE0594A934222D14220564CA047272055
:1083A000A0473920A0470220A0472B68504A93429B
:1083B00009D1524B1D6052491420524CA0475249DA
:1083C0001520A0470BE04C4A934208D14B4B5D600F
:1083D0004E4916204B4CA0474D491720A04701A8F5
:1083E0004C4B98473400083418239A46B24427006F
:1083F0002068431C11D03378012B02D16A461371D7
:1084000003E0002B01D16A461371C0B201A9424BAF
:108410009847398A3878414B984704345445E6D117
:10842000F378424613743378012B00D1137700237D
:10843000AB60EB602B616B61EB61AB610022AB84E5
:108440002B842633EA540133EA540133EA54253BA2
:10845000EB712A712B6832786A713278012A01D166
:1084600032799A827278042A04D12421585C02431A
:108470005A5404E024215A5C042082435A54B278AE
:10848000012A1AD0002A04D0022A0CD0032A1ED0B6
:1084900026E02422995C022081439954995C01389A
:1084A000814399541CE02422985C02210143995491
:1084B000995C01208143995412E02422995C0220A6
:1084C00081439954985C01210143995408E0242286
:1084D000985C022101439954985C0121014399540D
:1084E000002003B00CBC90469A46F0BD19830010E2
:1084F00000600040A5A1001000700040F876011057
:10850000C5850010D5AC0010F1860010F58700106D
:1085100021890010919B0010A19B0010319E00103A
:1085200003681A7A0520D20701D519700020704718
:10853000F0B583B0046800266D46EE710735002C57
:1085400034D0002904D129008079287001270BE05C
:10855000002A05D01720002B29D00026002703E091
:10856000012600276A4607322825605DC007FCD433
:10857000207B207A002B14D000257842474170429E
:108580004641207AC007FCD508782070207BC007C0
:10859000FCD5207910700135ADB2C9199219AB42E2
:1085A000EFD1237ADB06FCD5002000E01F2003B0CA
:1085B000F0BDC04610B513000022014CA04710BD0D
:1085C0003185001010B5484B1C6823681A7B302198
:1085D000595C0A40D20700D485E01A7B920623D565
:1085E000E279012A1DD01E212822A154253AE271E8
:1085F00012315A5C212082435A542723E35C1B0723
:108600000FD52623E35C1B070BD51E222823E2543B
:10861000216812328B5C013883438B5420006369DC
:10862000984723681B795EE0E279012A13D11A7911
:10863000628C013A92B26284628C92B2002A52D168
:1086400030215A5C202082435A5400222823E254CD
:10865000253BE37147E01B79DBB2A2691370A36984
:108660000133A361238C013B9BB22384238C9BB2F7
:10867000002B38D1E379002B14D12733E35C9B071F
:1086800031D52623E35C9B072DD500222823E25415
:10869000216830328B5C012083438B54E3682000D7
:1086A000984720E0E379022B1DD12533E35C5B077B
:1086B00019D52623E35C5B0715D5216830228B5C36
:1086C000012083438B54094B1B78002B08D00023D7
:1086D000083AA354054A137023692000984702E022
:1086E0000122024B1A7010BDF87601104C5C01108B
:1086F00070B53D4B18680268137A2C21515C0B4011
:10870000D90736D54179012933D1C179002913D14F
:10871000364909781170428C013A92B24284428CF7
:1087200092B2002A05D104682C21625C0125AA437B
:1087300062544279012A1CD1C279002A19D0C26937
:108740001178C9B20132C26102681170828C013A9B
:1087500092B28284828C92B2002A0AD104682C32AE
:10876000A15C0125A943A1540468A55C10212943FB
:10877000A154DB0636D5C379012B13D12633C35C54
:10878000DB072FD52623C35CDB072BD5002228234C
:10879000C25401682C328B5C1024A3438B54836831
:1087A00098471FE0C379022B1CD12533C35C5B07BC
:1087B00018D52623C35C5B0714D501682C228B5C7B
:1087C0001024A3438B540A4B1B78002B07D00023A3
:1087D000043A8354064A13700369984702E0012261
:1087E000034B1A7070BDC046F87601104E5C011044
:1087F0004C5C011010B5484B5C6823681A7B302133
:10880000595C0A40D20700D485E01A7B920623D532
:10881000E279012A1DD01E212822A154253AE271B5
:1088200012315A5C212082435A542723E35C1B07F0
:108830000FD52623E35C1B070BD51E222823E25409
:10884000216812328B5C013883438B5420006369AA
:10885000984723681B795EE0E279012A13D11A79DF
:10886000628C013A92B26284628C92B2002A52D136
:1088700030215A5C202082435A5400222823E2549B
:10888000253BE37147E01B79DBB2A2691370A36952
:108890000133A361238C013B9BB22384238C9BB2C5
:1088A000002B38D1E379002B14D12733E35C9B07ED
:1088B00031D52623E35C9B072DD500222823E254E3
:1088C000216830328B5C012083438B54E3682000A5
:1088D000984720E0E379022B1DD12533E35C5B0749
:1088E00019D52623E35C5B0715D5216830228B5C04
:1088F000012083438B54094B5B78002B08D0002365
:10890000083AA354054A537023692000984702E0AF
:108910000122024B5A7010BDF87601104C5C011018
:1089200070B53D4B58680268137A2C21515C0B409E
:10893000D90736D54179012933D1C179002913D11D
:10894000364909781170428C013A92B24284428CC5
:1089500092B2002A05D104682C21625C0125AA4349
:1089600062544279012A1CD1C279002A19D0C26905
:108970001178C9B20132C26102681170828C013A69
:1089800092B28284828C92B2002A0AD104682C327C
:10899000A15C0125A943A1540468A55C10212943C9
:1089A000A154DB0636D5C379012B13D12633C35C22
:1089B000DB072FD52623C35CDB072BD5002228231A
:1089C000C25401682C328B5C1024A3438B548368FF
:1089D00098471FE0C379022B1CD12533C35C5B078A
:1089E00018D52623C35C5B0714D501682C228B5C49
:1089F0001024A3438B540A4B5B78002B07D0002331
:108A0000043A8354064A53700369984702E00122EE
:108A1000034B5A7070BDC046F87601104E5C0110D1
:108A20004C5C011030B54C000C1907252C4055004A
:108A3000AA18120180184A005118C910E0252541D2
:108A4000425CAA431D0025412A434254052C0AD901
:108A50000131651FFF222A41455C2A4008252C1B55
:108A6000A3401343435430BD10B51A2343431A00A7
:108A700000210020034B9847034C0020A04700280A
:108A8000FBD110BDD9980010C5980010F0B55F4615
:108A900056464D464446F0B493B00E901191029262
:108AA00006931CAB1B781A0008931DAB1878049032
:108AB0001EAB187803901F9C0B1E01D100F01EFD09
:108AC000013BDBB20133109300230D93D30F00273A
:108AD0007F2191427B41DBB20F930E9B0D9A9B5CF1
:108AE0000793089A09922378002B01D100F0B4FC77
:108AF0000F9B002B01D100F0AFFC0192069A924629
:108B0000D30F0B937F2251468A427B41DBB20A93FB
:108B10005646BA46079A15006378D31A9B006268D6
:108B2000944663441A78082A43D8002A01D100F0F9
:108B30007AFC0A9A002A01D100F075FCB04639008F
:108B4000D04A934601220698121A9146059535009F
:108B50005A88A36853449A5C80230B41134206D081
:108B6000049B019A29000298C64EB04704E0039B7B
:108B7000019A29000298D8474B46EA18D2B2637886
:108B80000599CB1A9B0061688C466344110001353E
:108B9000EDB21878824201D300F03CFC4244D00F81
:108BA0007F2696427841C2B2002AD1D1464600F0D3
:108BB0003AFC102A00D9A2E00B9B7F21069A914231
:108BC0007B41DBB20C937F2A01DD00F02CFC534685
:108BD0005B009B46B1463A00330026003C00A846A5
:108BE000059373784146CB1A9B0071688C466344A9
:108BF0005988B3685B445B5C80211141194206D0FF
:108C0000049B019A059902989E4DA84705E0039B95
:108C1000019A059902989B4DA8470134E4B22200BD
:108C2000059D0135EBB205934B46E118CB0F7F2034
:108C300088427B41DBB2002B06D007233900A342D8
:108C40007941CBB2002BCCD1454634004E466378F7
:108C5000079AD31A9B006268944663441A78083ACC
:108C6000002A00DCDFE30C9A002A00D1DBE3524645
:108C700052009246069802000832D2B2904639005D
:108C8000804A934607225242121A9146059545465C
:108C9000B0465B88A2685244D3185A7880230B41AF
:108CA000134206D0049B019A29000298754EB047E2
:108CB00004E0039B019A29000298D8474B46E91823
:108CC000C9B26378059AD31A9B00626894466344DC
:108CD0000135EDB2187808380122814200DB00220C
:108CE000D2B2002A00D197E342468818C20F7F26ED
:108CF00086427A41D2B2002ACBD1464693E3182A63
:108D000000D9E7E00B9B7F21069A91427B41DBB2C1
:108D10000C937F2A00DD86E353465B0053449B4659
:108D2000B1463A00330026003C00A846059373780C
:108D30004146CB1A9B0071688C4663445988B368DE
:108D40005B445B5C80211141194206D0049B019A6F
:108D5000059902984B4DA84705E0039B019A059998
:108D60000298484DA8470134E4B22200059D013520
:108D7000EBB205934B46E118CB0F7F2088427B4135
:108D8000DBB2002B06D007233900A3427941CBB2D6
:108D9000002BCCD1454634004E46069B0833DBB24F
:108DA00099463A00330026003C00A8464946059102
:108DB000994673784146CB1A9B0071688C46634490
:108DC0005B88B1685944CB185B7880211141194206
:108DD00006D0049B019A059902982A4DA84705E000
:108DE000039B019A05990298264DA8470134E4B2E5
:108DF0002200059D0135EBB205934B46E118CB0FE0
:108E00007F2088427B41DBB2002B06D00F23390044
:108E1000A3427941CBB2002BCBD1454634004E461C
:108E20006378079AD31A9B006268944663441A7861
:108E3000103A002A00DCF6E20C9A002A00D1F2E295
:108E4000524652009244069802001032D2B2904626
:108E500039000C4A93460F225242121A9146059548
:108E60004546B0465B88A2685244D3189A7880235E
:108E70000B41134208D0049B019A29000298014E2D
:108E8000B04706E0258A0010039B019A290002984A
:108E9000D8474B46E918C9B26378059AD31A9B00A4
:108EA0006268944663440135EDB2187810380122A7
:108EB000814200DB0022D2B2002A00D1AEE242465B
:108EC0008818C20F7F2686427A41D2B2002AC9D1C1
:108ED0004646A8E2202A00D92AE10B9B7F21069A68
:108EE00091427B41DBB20C937F2A00DD9BE253462B
:108EF0009B009B46B1463A00330026003C00A84642
:108F0000059373784146CB1A9B0071688C46634485
:108F10005988B3685B445B5C80211141194206D0DB
:108F2000049B019A05990298DD4DA84705E0039B33
:108F3000019A05990298DA4DA8470134E4B222005B
:108F4000059D0135EBB205934B46E118CB0F7F2011
:108F500088427B41DBB2002B06D007233900A342B5
:108F60007941CBB2002BCCD1454634004E46069B0E
:108F70000833DBB299463A00330026003C00A8468D
:108F800049460591994673784146CB1A9B00716812
:108F90008C4663445B88B1685944CB185B78802168
:108FA0001141194206D0049B019A05990298BC4DC3
:108FB000A84705E0039B019A05990298B84DA84778
:108FC0000134E4B22200059D0135EBB205934B4616
:108FD000E118CB0F7F2088427B41DBB2002B06D00B
:108FE0000F233900A3427941CBB2002BCBD14546A8
:108FF00034004E4653469B009B46069B1033DBB223
:1090000099463A00330026003C00A846494605919F
:10901000994673784146CB1A9B0071688C4663442D
:109020005B88B1685944CB189B7880211141194263
:1090300006D0049B019A05990298994DA84705E02E
:10904000039B019A05990298954DA8470134E4B213
:109050002200059D0135EBB205934B46E118CB0F7D
:109060007F2088427B41DBB2002B06D017233900DA
:10907000A3427941CBB2002BCBD1454634004E46BA
:109080006378079AD31A9B006268944663441A78FF
:10909000183A002A00DCC6E10C9A002A00D1C2E18D
:1090A000524692009246069802001832D2B290467A
:1090B00039007B4A934617225242121A914605956F
:1090C0004546B0465B88A2685244D318DA788023BC
:1090D0000B41134206D0049B019A29000298704E5E
:1090E000B04704E0039B019A29000298D8474B46F9
:1090F000E918C9B26378059AD31A9B00626894464E
:1091000063440135EDB2187818380122814200DB42
:109110000022D2B2002A00D182E142468818C20F52
:109120007F2686427A41D2B2002ACBD146467AE1E6
:10913000282A00D977E10B9B7F21069A91427B4137
:10914000DBB20C937F2A00DD6DE153469B00534454
:109150009B46B1463A00330026003C00A8460593E2
:1091600073784146CB1A9B0071688C4663445988DA
:10917000B3685B445B5C80211141194206D0049BBB
:10918000019A05990298464DA84705E0039B019A6C
:1091900005990298424DA8470134E4B22200059D8A
:1091A0000135EBB205934B46E118CB0F7F20884287
:1091B0007B41DBB2002B06D007233900A342794163
:1091C000CBB2002BCCD1454634004E46069B08332B
:1091D000DBB299463A00330026003C00A8464946D7
:1091E0000591994673784146CB1A9B0071688C466D
:1091F00063445B88B1685944CB185B788021114186
:10920000194206D0049B019A05990298244DA8475B
:1092100005E0039B019A05990298214DA847013466
:10922000E4B22200059D0135EBB205934B46E118EF
:10923000CB0F7F2088427B41DBB2002B06D00F236F
:109240003900A3427941CBB2002BCBD14546340043
:109250004E4653469B0053449B46069B1033DBB25D
:1092600099463A00330026003C00A846494605913D
:10927000994673784146CB1A9B0071688C466344CB
:109280005B88B1685944CB189B7880211141194201
:1092900008D0049B019A05990298014DA84707E060
:1092A000258A0010039B019A05990298974DA847BB
:1092B0000134E4B22200059D0135EBB205934B4623
:1092C000E118CB0F7F2088427B41DBB2002B06D018
:1092D00017233900A3427941CBB2002BC9D14546AF
:1092E00034004E46069B1833DBB299463A003300F1
:1092F00026003C00A84649460591994673784146A8
:10930000CB1A9B0071688C4663445B88B1685944F2
:10931000CB18DB7880211141194206D0049B019AB9
:1093200005990298794DA84705E0039B019A059994
:109330000298764DA8470134E4B22200059D01351C
:10934000EBB205934B46E118CB0F7F2088427B415F
:10935000DBB2002B06D01F233900A3427941CBB2E8
:10936000002BCBD1454634004E466378079AD31A7A
:109370009B006268944663441A78203A002A52DDC2
:109380000C9A002A4FD0524692009244069802004E
:109390002032D2B2904639005C4A93461F22524294
:1093A000121A914605954546B0465B88A26852441C
:1093B000D3181A7980230B41134206D0049B019ADB
:1093C00029000298514EB04704E0039B019A2900FE
:1093D0000298D8474B46E918C9B26378059AD31A60
:1093E0009B006268944663440135EDB218782038DA
:1093F0000122814200DB0022D2B2002A12D0424672
:109400008818C20F7F2686427A41D2B2002ACCD178
:10941000464608E0464606E0464604E0464602E088
:10942000464600E04646019A0899531A0133DBB2DA
:109430009A4613000133DBB2019323789A450BD28D
:10944000099B53441A00DB0F7F2191427B41DBB221
:10945000002B01D0FFF75EFB0E9A0D99535C6278EA
:109460009B1A9B0062689B5C069A94466344DBB23D
:1094700001937E2B42D8119B013B01228B4200DCE1
:109480000022D3B2984623785A1E93410F9A134272
:1094900028D04346002B25D000261C4B9946099B1B
:1094A0009B46A2464446089B9846F5B243465A1945
:1094B000D2B2039B01990298C8470135EDB201363B
:1094C00053461B789D429B415B42234209D05D4439
:1094D000EB0F7F22AA427B41DBB2002BE5D1544641
:1094E00000E05446019B0133DBB206930D9B013330
:1094F0000D93109A934201D0FFF7EFFA13B03CBCE2
:1095000090469946A246AB46F0BDC046258A00105B
:10951000F0B583B000900C001600019308AB1F78E3
:10952000914209D8054D3B00019A21000098A847B7
:109530000134E4B2A642F6D203B0F0BD258A001091
:10954000F0B55F4656464D464446F0B48FB00190A4
:109550000B9114000092029318AB1B78039319AB84
:109560001A79199905915979200008949B79A44694
:1095700063441D000A930123A84200DB0023DBB2F1
:10958000002B00D18EE0009BDB431B0600D489E05A
:1095900009914B1E9946DB000B998C466344DBB264
:1095A0000D93089B0793072313400C9367E03378D0
:1095B0003A002A411A4205D0029B009A21000198E4
:1095C000D04704E0039B009A21000198D847013559
:1095D0000134E4B2082DEAD143460133DBB29846A8
:1095E0001E00049B0833DBB20493C84508DA069BCF
:1095F0009C466644059B9C466644049C0025D6E731
:109600000C9A002A29DD079B08995D1A099B5D4386
:109610004D44059B9C466544002400238026254F2D
:10962000B8460D998B4692462A783100194111426D
:1096300007D05B461919C9B2029B009A0198C0472E
:1096400006E05B461919C9B2039B009A0198B84716
:10965000631CDBB201345345E6DB009B0133DBB214
:109660001A000093079301230A998A4200DB002322
:10967000DBB2002B16D0009BDB431B0612D54B46FA
:10968000002BBDDD079B089A9B1A099A5A43069244
:109690000B9B04930026002398468027054B9B468E
:1096A0009A46A4E70FB03CBC90469946A246AB460A
:1096B000F0BDC046258A001030B58DB0050001AC64
:1096C0002000144B98471023237028002C302100D1
:1096D000114B984702AC2000104B98470023A37011
:1096E0009A332371893BA3600D3BA3611322E2608F
:1096F000E361143A226122621332626163622200E2
:1097000007492800074B98472800074B98470DB09A
:1097100030BDC046F58100102D820010018200107E
:1097200000700040558300106D820010F0B55F4658
:109730004E464546E0B482B081460D0090461C007E
:10974000019301211020294B98470520284B984769
:10975000009480212000274B9847013DEDB24545FC
:1097600031D240239B46234F234E6C1CE4B263014D
:1097700059461940E200202313400B43E2011343F2
:10978000620010210A401343621008390A40134353
:10979000E21004390A401343621102390A401343AC
:1097A000DBB2E10919430098B8476900491909017A
:1097B00049443022009D2800B04700212800B847C6
:1097C0002500A045D1D8002101980A4B9847DC20FC
:1097D000074CA04700211020044B98476420A04765
:1097E00002B01CBC90469946A346F0BD599D00109E
:1097F000698A001021850010B5850010F8B50700B2
:10980000012110200A4DA84705200A4CA04720211D
:109810003800094EB04700213800B047AA20A047C1
:1098200000211020A847FA208000A047F8BDC046BC
:10983000599D0010698A001021850010C0235B012A
:10984000C118FF2206E0027001309842FBD11800D7
:10985000994202D003003033F5E7704710B50D4B45
:109860001B7D002B07D001220A4B1A730A4B1B6881
:10987000002B00D098473423064AD35C002B07D036
:1098800001212C23D154054B1B68002B00D0984795
:1098900010BDC04600100040505C0110545C011027
:1098A0000123037003730222427042738370837337
:1098B0000022C270C2730371037482604261027637
:1098C0007047C046002802D1024B586801E0014BA6
:1098D000586A704700100040002807D1002902D1C3
:1098E000064B1A6009E0054B9A6106E0002902D197
:1098F000024B1A6201E0014B9A637047001000406E
:10990000002805D1064A117A80230B43137205E023
:1099100003492822885C802303438B547047C04648
:109920000010004070B504000420394B984723789C
:10993000002B02D1237B002B65D03649CA68202337
:109940001343CB60227E8B690320024012012D302D
:10995000834313438B612378002B26D06378012146
:10996000002B03D0023B5D425D41A901A278520069
:1099700002252A40E3789B000A352B401A43150044
:109980000D432379002B01D020231D43224BA268D5
:109990001A601D721F49C4225200885C01230343D0
:1099A0008B5400201D4B984700E00025237B002BA3
:1099B00029D0637B002B05D0012B05D0022B04D1CD
:1099C000402502E0012500E00025A37B5B00022189
:1099D0001940E27B92000C2313400B431D43237C70
:1099E000002B01D020231D4362690B4B1A622822F1
:1099F0009D5408496132FF32885C022303438B5433
:109A00000120064B984706491E20064B984770BD1B
:109A10006DA8001000B00040001000400199001037
:109A20005D980010D5AC0010002802D1024B1960DF
:109A300001E0024B19607047505C0110545C01104A
:109A400070B5164B1D68298F89B2CB0707D4012347
:109A50000124180022009A40114214D001E0012292
:109A6000002092B22A8746230C4AD35A0341DB07CF
:109A70000CD54423D35A0341DB0707D580001018C7
:109A80004368984702E00133102BE2D1802109049A
:109A9000C0235B00024AD15070BDC0460077011060
:109AA00000E100E0F8B5184B9B6C1E8FB6B2370092
:109AB0000024760B7603144D002E01D0134B9847EB
:109AC00022000123A3401F4213D09BB2A96C0B8735
:109AD0008E23EB5A2341DB070BD58C230A49CB5A43
:109AE0002341DB0705D5123292008A185368984744
:109AF00002E00134102CDFD180214904C0235B0037
:109B0000034AD150F8BDC0460077011051BC010096
:109B100000E100E010B590231B4AD258138F9BB28E
:109B2000D90414D499040AD459040CD4DB0BDB03F4
:109B30009BB2002B20D080231B020F210AE0802340
:109B40009B010D2106E08023DB010E2102E0802332
:109B50005B010C219BB21387D6230B4AD35A0B41CE
:109B6000DB0709D5D423D35A0B41DB0704D52431B5
:109B7000890051184B68984780218904C0235B00F5
:109B8000024AD15010BDC0460077011000E100E04C
:109B900000230370012242708370C3707047C04677
:109BA00070B51723012800D8C8E0072809D8644DEC
:109BB0006A6C103B03409B0007249C40A2436A64EC
:109BC00029E00F2809D85E4DAA6C072303409B00AB
:109BD00007249C40A243AA641DE0172809D8584DC9
:109BE000EA6C072303409B0007249C40A243EA64DD
:109BF00011E003002C3B032B0DD8524D8224E400CE
:109C00002A5D120701269E40120F2B5DB2430F26DC
:109C1000B34313432B5503001D3B022B29D84B782C
:109C2000012B08D1474D2B7D1F24241A0122A2406D
:109C300093432B7508E0434C257D1F22121A012304
:109C400093402B43DBB22375CA780023002A75D0DA
:109C50003C490C881F22101A8000013383402343A3
:109C60009BB20B80384A117802230B4313700023F8
:109C700064E00A78002A40D10F2808D801238340E5
:109C80009BB2324A938200231F2857D812E01F2824
:109C900007D80F220240012393409BB22C4A9382A3
:109CA00008E00F2318400E3B83409BB2294A938261
:109CB000002343E04B78012B0CD0002B02D0022B69
:109CC00010D03AE01E490A6D0123834013430B650F
:109CD000002333E01A490B6D0122824093430B6548
:109CE00000232BE0164B596D012282401143596528
:109CF000196D91431965002320E00023012A1DD12D
:109D00000F2806D8013383409BB2104A13820023E8
:109D100014E01F2808D80F2318400E3B83409BB245
:109D20000B4A1382002309E00F2318400E3B8340A7
:109D30009BB2084A1382002300E01723180070BD6D
:109D400000B0004000F0004000E000400000014092
:109D5000001001400030014010B50F2810D8002934
:109D600007D01D4A9188012383400B439BB2938007
:109D700031E019498B880122824093438B802AE08D
:109D80001F2814D8002909D014498C880F221040AC
:109D90000123834023439BB28B801CE00F498B88B7
:109DA0000F2210400E3A824093438B8013E000292B
:109DB00009D00B498C880F22104001238340234394
:109DC0009BB28B8007E006498B880F2210400E3A29
:109DD000824093438B8010BD000001400010014081
:109DE000003001400F2807D80E4A91880123834094
:109DF0004B409BB2938014E01F2809D80A4A9188EF
:109E00000F2318400E3B83404B409BB2938008E0E9
:109E1000064A91880F2318400E3B83404B409BB26B
:109E20009380704700000140001001400030014065
:109E300070B50D0AFF231940072833D84E4A546CD9
:109E4000F83B03409B0007269E40B4435464546C87
:109E50000E009E40330023435364012900D08AE062
:109E600003280FD81100D02252008C580323184029
:109E7000C0003C3383409C438C508B5885401D432D
:109E80008D5078E03C49D22252008C580323184070
:109E9000C0003C3383409C438C508B5885401D430D
:109EA0008D5068E00F2832D8334A946C0723034062
:109EB0009B0007269E40B4439464946C0E009E4021
:109EC000330023439364012955D10B280FD8110087
:109ED000D42252008C5803231840C0003C338340E6
:109EE0009C438C508B5885401D438D5043E0224944
:109EF000D62252008C5803231840C0003C338340C4
:109F00009C438C508B5885401D438D5033E017285F
:109F100031D8194AD46C072303409B0007269E4082
:109F2000B443D464D46C0E009E4033002343D36406
:109F3000012920D113280FD81100D82252008C58A3
:109F400003231840C0003C3383409C438C508B5803
:109F500085401D438D500EE0074ADA235B00D1583F
:109F600003242040C0003C348440A143D150D15848
:109F700085400D43D55070BD00B00040F0B50023C2
:109F80000F2804D91F2484425B411D3CE31A012A97
:109F900016D0002A04D0022A22D0032A30D03EE074
:109FA000294EDC00E218D20097590F250540012206
:109FB000AA4092B2BA85E418E400A459A2862EE021
:109FC000214EDC00E218D20097590F2505400122EE
:109FD000AA4092B2BA85E418E400A45922861EE091
:109FE000194EDC00E218D20097590F2505400122D6
:109FF000AA4092B23A85E418E400A45922860EE001
:10A00000114EDC00E218D20097590F2505400122BD
:10A01000AA4092B23A85E418E400A459A2860F221D
:10A020001040094CDD00EA18520012189200A218E4
:10A030005160EA18D200A2184432012181401388ED
:10A040000B431380F0BDC0460077011030B50F28D8
:10A0500005D880221204124B1A6000220CE01F283F
:10A0600005D8802252040E4B1A60012204E080229F
:10A0700092040B4B1A6002220F23184001218140E9
:10A08000084CD500AB18DB00E318463318880843AA
:10A090001880AA18D200135989B2198430BDC0465D
:10A0A00000E100E00077011010B5114A1000D8302F
:10A0B000002107E002C39342FCD151801180483255
:10A0C000824202D01300403BF4E70A4B0A4A1A606E
:10A0D0000A4A9A640A49902299500A4927200A4C50
:10A0E000A0470A492820A04709492920A04710BDB8
:10A0F000447701100077011000000140001001407A
:10A1000000300140419A0010D5AC0010A59A001013
:10A11000159B001001280DD0002802D002281CD069
:10A120002EE0184A90690C2303439361164A174B9B
:10A130001A601AE0134B9869082202439A619A69DF
:10A14000042082439A61124A53688020000303432B
:10A150005360104A0D4B1A6007E00A4A93690C20BD
:10A1600083439361084A094B1A60064B9A6903209E
:10A1700082439A619A69014011439961002000E08D
:10A180001720704700B0004080BA8C01D8770110CA
:10A1900000F0004080841E00014B18687047C046E4
:10A1A000D877011000B5352800D9A2E18000D24B44
:10A1B0001B589F46D14AD16802230B43D36000202D
:10A1C00098E1CE4AD16804230B43D360002091E18B
:10A1D000CA4AD16808230B43D36000208AE1C74AEA
:10A1E000D16810230B43D360002083E1C34AD168B8
:10A1F00020230B43D36000207CE1C04AD168802338
:10A200000B43D360002075E1BC4AD368802149002C
:10A210000B43D36000206DE1B84AD3688021090167
:10A220000B43D360002065E1B44AD3688021490123
:10A230000B43D36000205DE1B04AD36880218901DF
:10A240000B43D360002055E1AC4AD3688021C9019B
:10A250000B43D36000204DE1A84AD3688021090256
:10A260000B43D360002045E1A44AD3688021490212
:10A270000B43D36000203DE1A04AD36880218902CE
:10A280000B43D360002035E19C4AD3688021C9028A
:10A290000B43D36000202DE1984AD3688021090345
:10A2A0000B43D360002025E1944AD3688021490301
:10A2B0000B43D36000201DE1904AD36880218903BD
:10A2C0000B43D360002015E18C4AD3688021C90379
:10A2D0000B43D36000200DE1884AD3688021090434
:10A2E0000B43D360002005E1844AD36880214904F0
:10A2F0000B43D3600020FDE0804AD36880218904AD
:10A300000B43D3600020F5E07C4AD3688021C90468
:10A310000B43D3600020EDE0784AD3688021090523
:10A320000B43D3600020E5E0744AD36880214905DF
:10A330000B43D3600020DDE0704AD368802189059B
:10A340000B43D3600020D5E06C4AD3688021C90557
:10A350000B43D3600020CDE0684A116901230B4311
:10A3600013610020C6E0654A116902230B431361A3
:10A370000020BFE0614A116904230B4313610020F0
:10A38000B8E05E4A116908230B4313610020B1E075
:10A390005A4A116910230B4313610020AAE0574A5F
:10A3A000116920230B4313610020A3E0534A116974
:10A3B00040230B43136100209CE0504A1169802325
:10A3C0000B431361002095E04C4A1369802149003A
:10A3D0000B43136100208DE0484A136980218900F6
:10A3E0000B431361002085E0444A13698021C900B2
:10A3F0000B43136100207DE0404A1369802109016D
:10A400000B431361002075E03C4A13698021490128
:10A410000B43136100206DE0384A136980218901E4
:10A420000B431361002065E0344A13698021C901A0
:10A430000B43136100205DE0304A1369802109025B
:10A440000B431361002055E02C4A13698021490217
:10A450000B43136100204DE0284A136980218902D3
:10A460000B431361002045E0244A13698021C9028F
:10A470000B43136100203DE0204A1369802109034A
:10A480000B431361002035E01C4A13698021490306
:10A490000B43136100202DE0184A136980218903C2
:10A4A0000B431361002025E0144A13698021C9037E
:10A4B0000B43136100201DE0104A13698021090439
:10A4C0000B431361002015E00C4A117D01230B435F
:10A4D000137500200EE0094A117D02230B4313750A
:10A4E000002007E0054A117D04230B43137500206B
:10A4F00000E0172000BDC0462C4C011000B0004009
:10A5000000B5352800D97DE18000BF4B1B589F4620
:10A51000BE4AD36802218B43D360002073E1BB4A5B
:10A52000D36804218B43D36000206CE1B74AD36821
:10A5300008218B43D360002065E1B44AD368102121
:10A540008B43D36000205EE1B04AD36820218B4367
:10A55000D360002057E1AD4AD36880218B43D3609C
:10A56000002050E1A94AD168A94B0B40D3600020DC
:10A5700049E1A64AD168A74B0B40D360002042E1D5
:10A58000A24AD168A44B0B40D36000203BE19F4A14
:10A59000D168A24B0B40D360002034E19B4AD168C4
:10A5A0009F4B0B40D36000202DE1984AD1689D4B12
:10A5B0000B40D360002026E1944AD1689A4B0B40AF
:10A5C000D36000201FE1914AD168984B0B40D360C3
:10A5D000002018E18D4AD168954B0B40D3600020D4
:10A5E00011E18A4AD168934B0B40D36000200AE105
:10A5F000864AD168904B0B40D360002003E1834A28
:10A60000D1688E4B0B40D3600020FCE07F4AD168BC
:10A610008B4B0B40D3600020F5E07C4AD168894B1E
:10A620000B40D3600020EEE0784AD168864B0B40A7
:10A63000D3600020E7E0754AD168844B0B40D360BB
:10A640000020E0E0714AD168814B0B40D3600020CC
:10A65000D9E06E4AD1687F4B0B40D3600020D2E036
:10A660006A4AD1687C4B0B40D3600020CBE0674A3C
:10A67000D1687A4B0B40D3600020C4E0634AD168B4
:10A68000774B0B40D3600020BDE0604A1369012185
:10A690008B4313610020B6E05C4A136902218B43AF
:10A6A00013610020AFE0594A136904218B43136101
:10A6B0000020A8E0554A136908218B43136100204C
:10A6C000A1E0524A136910218B43136100209AE0E4
:10A6D0004E4A136920218B431361002093E04B4ABB
:10A6E000136940218B43136100208CE0474A1369B2
:10A6F00080218B431361002085E0444A1169444B5B
:10A700000B40136100207EE0404A1169554B0B401D
:10A710001361002077E03D4A1169534B0B401361F0
:10A72000002070E0394A11693A4B0B401361002058
:10A7300069E0364A1169384B0B401361002062E032
:10A74000324A1169354B0B40136100205BE02F4A00
:10A750001169334B0B401361002054E02B4A1169FF
:10A76000304B0B40136100204DE0284A11692E4BFD
:10A770000B401361002046E0244A11692B4B0B402B
:10A78000136100203FE0214A1169294B0B401361FE
:10A79000002038E01D4A1169264B0B401361002050
:10A7A00031E01A4A1169244B0B40136100202AE062
:10A7B000164A1169214B0B401361002023E0134A14
:10A7C00011691F4B0B40136100201CE00F4A1169F7
:10A7D0001C4B0B401361002015E00C4A137D012136
:10A7E0008B43137500200EE0084A137D02218B4332
:10A7F0001375002007E0054A137D04218B43137570
:10A80000002000E0172000BD044D011000B0004002
:10A81000FFFEFFFFFFF7FFFFFFEFFFFFFFDFFFFF81
:10A82000FFBFFFFFFF7FFFFFFFFFFEFFFFFFFDFFFB
:10A83000FFFFFBFFFFFFF7FFFFFFEFFFFFFFDFFF64
:10A84000FFFFBFFFFFFF7FFFFFFFFFFEFFFFFFFDDB
:10A85000FFFFFFFBFFFFFFF7FFFFFFEFFFFFFFDF44
:10A86000FFFFFFBFFFFDFFFFFFFBFFFF00B543281A
:10A8700000D923E28000E04B1B589F46DF4B59680C
:10A8800002229143596059680A435A60002016E237
:10A89000DA4B596804229143596059680A435A6057
:10A8A00000200CE2D54B5968082291435960596841
:10A8B0000A435A60002002E2D04B596810229143AB
:10A8C000596059680A435A600020F8E1CB4B596837
:10A8D00020229143596059680A435A600020EEE1F2
:10A8E000C64B596840229143596059680A435A60DF
:10A8F0000020E4E1C14B59688022914359605968B6
:10A900000A435A600020DAE1BC4B5968BC4A0A404D
:10A910005A605A68802149000A435A600020CEE1FB
:10A92000B64B5968B74A0A405A605A688021890074
:10A930000A435A600020C2E1B04B5968B24A0A404B
:10A940005A605A688021C9000A435A600020B6E163
:10A95000AA4B5968AD4A0A405A605A6880210901D9
:10A960000A435A600020AAE1A44B5968A84A0A4049
:10A970005A605A68802149010A435A6000209EE1CA
:10A980009E4B5968A34A0A405A605A68802189013F
:10A990000A435A60002092E1984B59689E4A0A4047
:10A9A0005A605A688021C9010A435A60002086E132
:10A9B000924B5968994A0A405A605A6880210902A4
:10A9C0000A435A6000207AE18C4B5968944A0A4045
:10A9D0005A605A68802149020A435A6000206EE199
:10A9E000864B59688F4A0A405A605A68802189020A
:10A9F0000A435A60002062E1804B59688A4A0A4043
:10AA00005A605A688021C9020A435A60002056E100
:10AA10007A4B5968854A0A405A605A68802109036E
:10AA20000A435A6000204AE1744B5968804A0A4040
:10AA30005A605A68802149030A435A6000203EE167
:10AA40006E4B59687B4A0A405A605A6880218903D4
:10AA50000A435A60002032E1684B5968764A0A403E
:10AA60005A605A688021C9030A435A60002026E1CF
:10AA7000624B5968714A0A405A605A688021090439
:10AA80000A435A6000201AE15C4B59686C4A0A403C
:10AA90005A605A68802149040A435A6000200EE136
:10AAA000564B5968674A0A405A605A68802189049F
:10AAB0000A435A60002002E1504B5968624A0A403A
:10AAC0005A605A688021C9040A435A600020F6E09F
:10AAD0004A4B59685D4A0A405A605A688021090504
:10AAE0000A435A600020EAE0444B5968584A0A4039
:10AAF0005A605A68802149050A435A600020DEE006
:10AB00003E4B5968534A0A405A605A688021890569
:10AB10000A435A600020D2E0384B59684E4A0A4036
:10AB20005A605A688021C9050A435A600020C6E06D
:10AB3000324A53685B005B08536053688021090602
:10AB40000B4353600020BAE02C4B1A8901218A4341
:10AB50001A81198901220A431A810020AFE0274B8C
:10AB60001A8902218A431A81198902220A431A8109
:10AB70000020A4E0214B1A8904218A431A811989F3
:10AB800004220A431A81002099E01C4B1A890821EB
:10AB90008A431A81198908220A431A8100208EE00B
:10ABA000164B1A8910218A431A81198910220A43E7
:10ABB0001A81002083E0114B1A8920218A431A81CF
:10ABC000198920220A431A81002078E00B4B1A8948
:10ABD00040218A431A81198940220A431A810020A0
:10ABE0006DE0064B1A8980218A431A8119898022D7
:10ABF0000A431A81002062E0DC4D011000B00040E1
:10AC0000FFFEFFFFFFFDFFFFFFFBFFFFFFF7FFFF63
:10AC1000FFEFFFFFFFDFFFFFFFBFFFFFFF7FFFFF34
:10AC2000FFFFFEFFFFFFFDFFFFFFFBFFFFFFF7FF43
:10AC3000FFFFEFFFFFFFDFFFFFFFBFFFFFFF7FFF14
:10AC4000FFFFFFFEFFFFFFFDFFFFFFFBFFFFFFF723
:10AC5000FFFFFFEFFFFFFFDFFFFFFFBF184B19896B
:10AC6000184A0A401A811989802252000A431A811F
:10AC7000002024E0124B1989134A0A401A811989CD
:10AC8000802292000A431A81002018E00C4B198997
:10AC90000E4A0A401A8119898022D2000A431A8179
:10ACA00000200CE0064B1989094A0A401A811989CB
:10ACB000802212010A431A81002000E0172000BD03
:10ACC00000B00040FFFEFFFFFFFDFFFFFFFBFFFFA7
:10ACD000FFF7FFFF8023DB049C4660448000016097
:10ACE0007047C04670B5204B1C6823681D7DEDB2CF
:10ACF0006A0613D51E212222A1541A7E23318A43CB
:10AD00001A762123E35C1B0706D52023E35C1B078F
:10AD100002D520002369984723681B7CEB0722D5C6
:10AD200023681B7CDBB26269137063690133636162
:10AD3000A38B013B9BB2A383A38B9BB2002B12D1AD
:10AD40002133E35C5B070ED52023E35C5B070AD568
:10AD500000222223E2542268137E01218B431376C2
:10AD6000E3682000984770BDDC77011070B5214B77
:10AD70001C6823681D79EDB2EA0717D5A26911781E
:10AD8000C9B20132A2611970E38B013B9BB2E3832C
:10AD9000E38B9BB2002B09D12268137A01218B43EC
:10ADA00013722268117A10230B431372EB0612D52B
:10ADB0002123E35CDB070ED52023E35CDB070AD508
:10ADC00000222223E2542268137A10218B4313724B
:10ADD000200063689847AB060AD52123E35C9B07F4
:10ADE00006D52023E35C9B0702D5A3682000984783
:10ADF00070BDC046DC77011070B5204B5C682368DD
:10AE00001D7DEDB26A0613D51E212222A1541A7EA1
:10AE100023318A431A762123E35C1B0706D52023BE
:10AE2000E35C1B0702D520002369984723681B7C3D
:10AE3000EB0722D523681B7CDBB262691370636960
:10AE400001336361A38B013B9BB2A383A38B9BB2B2
:10AE5000002B12D12133E35C5B070ED52023E35C8A
:10AE60005B070AD500222223E2542268137E0121C7
:10AE70008B431376E3682000984770BDDC770110A0
:10AE800070B5214B5C6823681D79EDB2EA0717D5D0
:10AE9000A2691178C9B20132A2611970E38B013B3A
:10AEA0009BB2E383E38B9BB2002B09D12268137A18
:10AEB00001218B4313722268117A10230B43137202
:10AEC000EB0612D52123E35CDB070ED52023E35CE0
:10AED000DB070AD500222223E2542268137A1021CC
:10AEE0008B431372200063689847AB060AD5212371
:10AEF000E35C9B0706D52023E35C9B0702D5A36890
:10AF00002000984770BDC046DC770110E1235B024A
:10AF100003600023037143718371C3710233836043
:10AF20000322C26001320261013242618361C36166
:10AF3000036243627047C046F8B54F464646C0B408
:10AF4000050017000160002343608360C360036154
:10AF50004361836100228383C3832033C25401335E
:10AF6000C2540133C254554B994218D10920544C54
:10AF7000A0470A20A0470920524CA0470A20A0471A
:10AF8000514B1D6051491020514CA047514911208F
:10AF9000A047514B01221A6001321A601AE04F4B50
:10AFA000994217D10B20464CA0470C20A0470B20FC
:10AFB000444CA0470C20A047434B5D6048491220F9
:10AFC000434CA04747491320A047434B04221A6033
:10AFD00004321A60FB7904229046002B52D10233CE
:10AFE00098464FE0318A01CEC0B2C8470134E4B27E
:10AFF0004445F7D32B681A7DD20704D501211A7C6A
:10B000001A7D0A42FBD1002120229954FB79591E56
:10B010008B4159013B797A7913430B43BA79022A60
:10B020000DD0D1B2022902D8012A05D00FE0032A9F
:10B0300008D0042A09D00AE00222134307E00622BE
:10B04000134304E00A22134301E00E22134320229B
:10B0500029688B543E68244B984704003100234BE9
:10B06000984782B20004000C7043201A31098842CC
:10B0700006D900230133DBB2401A8842FAD807E030
:10B08000002305E03E0008360024194B9946A9E745
:10B09000002128202C68215401331B075B0FD200AC
:10B0A00013439BB22A6893842B6819762B68197214
:10B0B00000200CBC90469946F8BDC04600400040B8
:10B0C0006DA80010A5A10010DC770110E5AC001000
:10B0D000D5AC00106DAD001000E100E00050004064
:10B0E000F9AD001081AE001099A10010611001109F
:10B0F000319E00100268012013790342FCD01170C8
:10B100000020704702680120137D0342FCD0137CAD
:10B110000B7000207047C0461723002A0DD00B3358
:10B12000C35CDBB2052B08D0828341610522222358
:10B13000C2540368043A1A76002318007047C046C8
:10B140009300C3185960202101239340425C1343AC
:10B150004354704710B5212201238B40845C234364
:10B160008354012904D10268117A20230B431372FE
:10B1700010BDC04610B501228A402124035D9343CF
:10B180000355012904D10268137A1F318B431372CE
:10B1900010BDC046F0B5474680B40C00904600286C
:10B1A0000DD1002A0EDD8F18084E094D30682100A0
:10B1B0002B6898470134A742F8D1404603E00120AC
:10B1C000404200E0002004BC9046F0BDEC77011046
:10B1D000E4770110F0B5474680B40E001500013841
:10B1E000022811D8002A12D000240C4B98460C4F8C
:10B1F00043461868315D3B689847002809DB0134F5
:10B20000A542F5D1200006E00120404203E00020E5
:10B2100001E00120404204BC9046F0BDEC770110F3
:10B22000E87701100300064A1268002A02D1054996
:10B23000034A1160024A1068C31813607047C04681
:10B24000585C011078AE0110012040427047C046A2
:10B2500080239B014B6000207047C046012070474F
:10B26000002070470022024B9A7100207047C046B0
:10B27000F07701100020704710B501001822024835
:10B28000024B9847002010BD0A7801106B21011075
:10B2900010B5010018220248024B9847002010BD4B
:10B2A000227801106B21011010B50100162202480E
:10B2B000024B9847002010BD3A7801106B21011015
:10B2C00080B50C4FBD4401000B4A02A80B4B9847B8
:10B2D0006B461B896A46D380937A13710E236B44A5
:10B2E0000093074B1B6868469847002084239B0007
:10B2F0009D4480BDF0FDFFFF060200006B210110A0
:10B30000507801100020704710B50100134C122234
:10B310002000134B9847083CA379002B1BD1114CFC
:10B320000133E37102221F33E254200021300E3238
:10B330000D490B4B984723002033208A0B4A0121EB
:10B340000B4CA047041E06D00A480B4B984721001F
:10B350000A480B4B9847002010BDC046F8770110F3
:10B360006B210110F0770110EC4E0110FFFF00007F
:10B3700011E80010744F0110AD220110784F011038
:10B380008D21011010B582B0010001AC0422200013
:10B39000194B9847E3780A2B2AD101AB9B78032BF2
:10B3A0000ED1164BDA8B998B188A154B98470028CB
:10B3B0001ED01448144B98471448154B984717E073
:10B3C000052B10D10D4BDA8BD98E013189B2588EF5
:10B3D000104B984700280BD00A480B4B98470E4853
:10B3E0000B4B984704E0072B02D10122034B9A71C3
:10B3F000002002B010BDC0466B210110F077011093
:10B4000069E80010744F0110AD220110A84F01101F
:10B410008D21011091E80010D04F0110F0B587B0D8
:10B4200005AC01262670002565700E480E4FB84702
:10B430000C48B8470D4B4C22995A023A985A02963A
:10B440000195009402230022094CA047E22805D16F
:10B450000448054B98470748074B9847002007B01A
:10B46000F0BDC046744F0110AD220110F0770110FD
:10B47000B9E80010EC4F01108D210110014B18604C
:10B4800099807047F077011010B50F4B99881868B4
:10B490000E4B98470E4A002100200E4CA0470E4A42
:10B4A00001210020A0470D4A02210020A0470C4B9B
:10B4B0009847041E06D00B480B4B984721000B48B9
:10B4C0000B4B984710BDC046F077011089C700109C
:10B4D000284F011071BE0010004F01108050011064
:10B4E000DDC60010744F0110AD2201101C50011078
:10B4F0008D21011010B50300084A92888A4206D3B4
:10B50000064A108A0A001900054B984704E00349CF
:10B51000088A1900024B984710BDC046F077011009
:10B5200005C8001010B584B0002302930D4B0193A1
:10B53000C823DB00009300230022012100200A4CD5
:10B54000A047002806D10948094B984709480A4BEB
:10B55000984705E00548064B98470848064B98472A
:10B5600004B010BD8F0200002DE60010744F0110D2
:10B57000AD220110445001108D21011064500110C2
:10B58000014B18607047C04650780110002070478A
:10B5900000207047C078002800D0E2207047C046E5
:10B5A0000020704710B50078002806D00348044BEF
:10B5B00098470448044B9847E22010BD744F01108F
:10B5C000AD2201102C5201108D21011010B5040084
:10B5D000C078002808D00548054B9847A2782188F4
:10B5E0000448054B9847E22010BDC046744F011037
:10B5F000AD220110405201108D210110F8B5040058
:10B60000194B9B2292009D180127002618001A0052
:10B61000563A11882288914219D11A78052A01D008
:10B62000082A01D1077012E0072A0FD892000F49AB
:10B630008A5897461E700E4A1278002A07D00C4A84
:10B640001278013AD2B20A490A7000E006707C33DF
:10B65000AB42DBD10748084B98472288A1780748BE
:10B66000074B98470020F8BDCA780110A850011078
:10B67000D87A0110744F0110AD22011078520110D8
:10B680008D210110F8B506000188284B00241A8985
:10B690008A4204D11A005E321278062A2ED0013472
:10B6A000E4B27C33052CF2D139E0204963011A1B46
:10B6B00092008A18157614005E34072323701C4804
:10B6C0001C4B98471C481D4B9847E2252BE0184817
:10B6D000184B98471A48194B9847144963011A1B8D
:10B6E00092008A1810005E3008270770F0781075F5
:10B6F000B2781C1BA4000C19227614E0B578002D3A
:10B70000E5D0D2E70A4E30000A4DA8470C480B4C52
:10B71000A0473000A8470B48A047E22503E0B578D2
:10B72000002DC2D1EEE72800F8BDC0466C780110AC
:10B73000744F0110AD220110A85201108D2101108B
:10B74000BC520110E052011010B50100154B1B78DE
:10B75000DBB2132B12D8134C2378DBB29800C0183D
:10B76000C000C318104818182922104B9847237896
:10B7700023780133DBB22370002311E00C480D4B1A
:10B7800098470D480D4B98470D4B9847E2230028EA
:10B7900006D00748074B98470A48084B9847E223CA
:10B7A000180010BD40650110507B01106B21011085
:10B7B000744F0110AD220110085301108D210110AA
:10B7C00069E7001040530110F8B54F464646C0B433
:10B7D000050041883A4B00241A898A4204D11A0094
:10B7E0005E321278032A62D00134E4B27C33052C35
:10B7F000F2D12BE063011C1BA400314B1C195E34F9
:10B800002378012B13D92F482F4B98472F48304BC3
:10B810009847688813212F4B9847061E4BD029481C
:10B82000294B98472C482A4B9847E22643E00026AC
:10B8300041E0244E3000244DA8472848244CA0471E
:10B840003000A8472648A047E22634E02B79002B99
:10B85000D0D1EEE71B481C4B984720481C4B98471B
:10B860002A78174B994667013B1B9B004B441A757E
:10B870002A791A765E3305221A70381B80004844F4
:10B880003630290022310B32164B98469847381B28
:10B89000800048444630290032311722C047381B07
:10B8A000800048441A30A91D1C22C04703E02E79AD
:10B8B000002ECFD09EE730000CBC90469946F8BDD4
:10B8C0006C780110744F0110AD2201105853011013
:10B8D0008D21011089E70010785301109453011055
:10B8E000C05301106B21011010B50088782301228C
:10B8F0000121024CA047002010BDC046A9E700105E
:10B90000F0B557464E464546E0B484B004000922DF
:10B91000002101A86B4B984725886B490A0000233A
:10B920001089A84216D110005E300078022811D18B
:10B9300065485A01D61AB60086195E36062232705C
:10B94000F93213405A01D21A92008218127DD007A0
:10B9500005D41BE001337C32052BE1D11EE0E078F9
:10B96000002813D05901C91A8B005749C9181A3138
:10B970002088564B9847002800D19DE05448554BED
:10B9800098475548554B9847E22095E05A01D31AFD
:10B990009B004D4AD3185E3302221A70258800227C
:10B9A000002316000889A8420DD108005E300078F7
:10B9B000022808D15201921B9600434A92195E3226
:10B9C0000321117005E00133DBB201327C31052B1C
:10B9D000E7D101AA02211172E17891700121517021
:10B9E000033111701F005A01D21A92003649525C7D
:10B9F000022A04D101AA03219171D17103E001AAA5
:10BA000001219171D17101AA1021517111717A0135
:10BA1000D21B92002C498A18127E402A34D15A0136
:10BA2000D31A9B009A461E00603676185546683534
:10BA30006D182B4B99460F239846C847434618402C
:10BA40003070C84743461840B0740136AE42F4D156
:10BA5000564670361C4AB618214B99460F23984615
:10BA6000C8474346184028700135B542F8D11C4BF1
:10BA700098477B01DB1B9B00134AD3181A007032D6
:10BA800010807A3310221A707A01D71BBF006037FA
:10BA90000D4ABA182088002301A9124CA04700289B
:10BAA0000AD001AB00229A705A700948094B984796
:10BAB0000D480A4B9847E22004B01CBC90469946BA
:10BAC000A246F0BD7D2101106C78011061F40010D8
:10BAD000744F0110AD220110F05301108D2101109F
:10BAE000C122011075F2001008540110F0B55F4634
:10BAF00056464D464446F0B485B083460488494ACC
:10BB0000002100231089A0420DD110005E30007882
:10BB1000022808D14A01521A9500424A52195E324F
:10BB20000321117005E00133DBB201317C32052BBA
:10BB3000E8D101AA022111720139917051700021DE
:10BB40001170D1701F005A01D21A92003549525C0F
:10BB5000022A04D101AA03219171D17103E001AA43
:10BB600001219171D17101AA1021517111717A01D4
:10BB7000D21B92002B498A18127E402A31D15A01D9
:10BB8000D31A9B009A461D0060356D1854466834E0
:10BB90006418254B99460F26C84730402870C8477F
:10BBA0003040A8740135A542F6D1554670351D4A7E
:10BBB000AD181D4B99460F239846C8474346184079
:10BBC00020700134AC42F8D1174B98477B01DB1B46
:10BBD0009B00144AD3181A00703210807A33102256
:10BBE0001A707A01D71BBF0060370E4ABA185B463D
:10BBF0001888002301A90D4CA04700280AD001ABEA
:10BC000000229A705A700A480A4B98470A480B4B10
:10BC10009847E22005B03CBC90469946A246AB4608
:10BC2000F0BDC0466C780110C122011075F2001001
:10BC3000744F0110AD220110345401108D210110F8
:10BC4000F0B585B0050006223D4902A83D4EB0473B
:10BC500001AC042229002000B047E378002B62D118
:10BC600039483A4B98473A483A4B984700263A4C5D
:10BC7000FF271E20A047C3B2002B1AD1324F380035
:10BC8000324EB0473548334CA0473800B0473448AF
:10BC9000A04728881321334B98470300E220002B4C
:10BCA0004CD02948294B98472F482A4B9847E220E7
:10BCB00044E01A00303A092ADBD802AAB3543840CB
:10BCC0002A4B98470136062E26D0D2E71E481F4B36
:10BCD000984727481F4B98470024244E02ABE05C4E
:10BCE000B0470134062CF9D101AB9978288802AA13
:10BCF000204B9847002821D01348144B98471E48E2
:10BD0000144B9847002019E00F48104B98471B48E8
:10BD1000104B9847002011E00B480C4B98471848EF
:10BD20000C4B9847D8E701AB5A8880235B009A42B6
:10BD3000CCD001AB9B78012BE6D0002005B0F0BD44
:10BD4000D45101106B210110744F0110AD2201106C
:10BD50005C5401108D21011045CA0010845401105B
:10BD60009054011089E7001078530110C12101108F
:10BD7000A4540110A5F30010DC540110F454011078
:10BD800010550110F8B5060005882F4B002200243D
:10BD900010001989A94216D119005E3109780129CC
:10BDA00011D929495201101A800008185E30062363
:10BDB00003706201131B9B00CB1870331A887388C1
:10BDC0009A4213D106E00134E4B201327C33052CEF
:10BDD000DED10BE06101091B89001B4B5918723140
:10BDE000301D0822194B9847002815D0184F3800ED
:10BDF000184EB0471848194DA8473800B0471848A2
:10BE0000A84763011C1BA4000F4B1C1920890521A6
:10BE1000144B9847E22016E06201131B9B0060332D
:10BE200009495B18141BA4000C19217D30880122DC
:10BE30000D4CA047002806D00548064B98470B48F4
:10BE4000064B98470020F8BD6C7801104D21011079
:10BE5000744F0110AD220110245501108D210110E5
:10BE60005C55011089E70010D9F40010B455011099
:10BE700030B5002A47D0062947D88900284B5B589F
:10BE80009F46284B05240AE0274B012407E0274B57
:10BE9000052404E0264B012401E0264B052400285C
:10BEA00016D1196800290BD106E01D000433181FB4
:10BEB0000068002806D100E01D002A6001212CE066
:10BEC000043300210131C9B2A142EED3002124E0A4
:10BED0000021012821D119688A420CD106E01D00F9
:10BEE0000433181F0068824207D100E01D000023C0
:10BEF0002B60012111E0043300210131C9B2A142BC
:10BF0000EDD3002109E0002107E0002105E00A4B04
:10BF10000524C4E7094B0124C1E7080030BDC04631
:10BF2000C85001105878011054780110DC7A0110C3
:10BF300090800110F07A0110047B01104C7B0110FD
:10BF4000F0B55F4656464D464446F0B491B0050004
:10BF500000247E4B1C60072200217D487D4EB047A7
:10BF6000122200217C48B0477C4A00217C48B0471F
:10BF70007C4B1C70CD22920000217B48B0477B4B4C
:10BF80001C708322920000217948B047794B9B4670
:10BF90008023DB009A461A0000215846B047764BB2
:10BFA000994680235B0198461A0000214846B04715
:10BFB000724F1C2200213800B0475B46BB605346DD
:10BFC000FB604B463B6143467B616D4B1C605C6094
:10BFD0009C60DC601C616B4B1C605C609C60DC6086
:10BFE0001C61694B1C605C609C60DC601C61674B81
:10BFF0001C60674B1C60674B1C605C609C60DC6075
:10C000001C61654B1C60654C9B239B009846A044BB
:10C01000504F40267C2200212000B84723005E3389
:10C0200000221A7026767C34A045F3D15C4B1A703E
:10C03000524C4A4B63604A4B23605A485A4B9847CC
:10C040005A485B4B984720005A4B984700280BD022
:10C05000544E3000544DA8475748554CA047300027
:10C06000A8475648A047FEE7554A00210020554CF6
:10C07000A047554A02210020A04708215348544BAD
:10C080009847002805D04748474B98475148484BA8
:10C09000984707225049083104A8504B9847262258
:10C0A000002106A82B4B9847002D0CD104A84C4B1F
:10C0B000984704AD002806D03A483B4B984749487A
:10C0C0003B4B984704AD3748374B98472B796A79F3
:10C0D000A9792878039068780290A8780190E87888
:10C0E00000904148324CA04706AC0A2323703F4BD6
:10C0F00063800722290007A8384B98470023E3767E
:10C1000023776377A377E3772384638480239B007B
:10C11000A3842000364B9847002805D02148224BA5
:10C1200098473448224B98472800334B98470028BB
:10C1300005D01C481C4B984730481D4B984711B000
:10C140003CBC90469946A246AB46F0BD3C6501100A
:10C15000446501107D210110187B0110E2040000EC
:10C160005C60011040650110507B0110487B01109C
:10C17000847E01105C5C01104C6501102C7B011069
:10C18000F07A0110047B0110587801104C7B0110EB
:10C1900054780110DC7A0110908001106C78011045
:10C1A000D87A0110744F0110AD220110D45501103E
:10C1B0008D210110A1E30010E8550110085601106F
:10C1C0004058011071BE0010045201104456011075
:10C1D000B9E2001050560110D45101106B2101102A
:10C1E000EDE200106856011080560110983A0000E8
:10C1F00011E30010B856011055E50010DC5601108F
:10C2000010B501220121064B9847002806D00548A9
:10C21000054B98470548064B9847E22010BDC0469D
:10C2200021F40010744F0110AD22011018570110B5
:10C230008D210110F0B55F464E464546E0B49AB0F8
:10C240000500867A002E00D0C6E07548754FB847C5
:10C250002B796A79A97968780290A8780190E878B2
:10C2600000907148714CA0476D48B84729897048C3
:10C27000A047122229006F486F4B98470495072268
:10C2800029006E486E4B9847002800D1ADE02B780E
:10C29000022B00D0A9E05022002106A8694B984744
:10C2A000694F00230BE0591C147806A8C4540132CE
:10C2B0008BB2B342F7D17C37331E502B04D01E0013
:10C2C0001036B6B23A00EEE706AA290005205F4B09
:10C2D0009847061E00D19CE05148524B98475C4855
:10C2E000524B9847E22694E0E7B20594072204995E
:10C2F0004846D847002809D1059A53019B1A9A004D
:10C30000544B9B185E3302221A702BE001347C23BD
:10C310009C46E144052CE7D172E01C00117800290D
:10C320001AD101E00024002763019946181B800000
:10C33000484B98464044122229003F4B9847464AB2
:10C3400013780133DBB213704B461B1B9B00434435
:10C350005E3302221A7005E0791CCFB201337C32C1
:10C36000052FDAD1072229003448354B9847002899
:10C370000CD17B01DB1B9B00364AD31805229A7433
:10C38000023200212D482F4B984742E0314B98460E
:10C390007C01E31B9B0043440A229A74033A002168
:10C3A0002648284B9847E41BA4004444A37C0A2B4E
:10C3B0002FD10DE01A481B4B9847274B1978C9B26B
:10C3C00026481A4B984728891321254B984720E087
:10C3D0002889244B98471CE01148124B9847A97AAA
:10C3E0002148124B9847002613E01B4B1B78DBB209
:10C3F000042BDFD8174B99460024114B9B4673E75B
:10C400005E23144AD35C002B8CD0184A01230127E9
:10C4100083E730001AB01CBC90469946A346F0BD95
:10C42000744F0110AD220110385701108D210110F9
:10C430007C570110187B01106B210110446501101D
:10C440004D2101107D210110B2780110B5E70010D7
:10C45000945701106C780110D87A0110B857011068
:10C4600089E7001001C20010F4570110467901104D
:10C47000F0B5474680B40378002B41D12F4D0024FE
:10C48000461C2F4F102229003000B84700283FD00B
:10C490000134E4B27C35052CF4D131E0DDB21C006E
:10C4A0001178002922D101E000240025254B98466F
:10C4B0006601371BBF004744122223493800234B33
:10C4C0009847234A13780133DBB213705E37022397
:10C4D0003B70341BA40044440833A3746B015D1B00
:10C4E000AD004544AB7C0A2B23D104E001337C3200
:10C4F000052BD3D11DE0144B1889164B984718E033
:10C500005E23104AD35C002BCED0134A0123C5E72B
:10C510000C4863011A1B9200821811005E3102253B
:10C520000D700A219174100012220749074B984799
:10C53000E1E7002004BC9046F0BDC046B27801108F
:10C540004D2101106C780110187B01106B21011036
:10C55000D87A011001C2001046790110F8B50D001B
:10C560003B2872D883003C4AD3589F46840000265B
:10C570003A4FBB59002B04D01B59002B01D0280087
:10C5800098470436142EF4D165E01338C4B2A400E1
:10C590000026334FBB59002B04D01B59002B01D070
:10C5A000280098470436142EF4D154E01D38C4B244
:10C5B000A40000262B4FBB59002B04D01B59002B85
:10C5C00001D0280098470436142EF4D143E02738D0
:10C5D000C0B2254B1B68002B3DD08000C358002BF8
:10C5E00039D00800984736E02D38C0B21F4B1B6881
:10C5F000002B30D08000C358002B2CD00800984767
:10C6000029E03638C4B2A4000026194FBB59002BCC
:10C6100004D01B59002B01D0280098470436142E53
:10C62000F4D118E03838C0B2124B1B68002B12D07E
:10C630008000C358002B0ED0080098470BE00E4B2B
:10C640001B68002B07D0984705E00C4D28000C4CC8
:10C65000A0472800A047F8BDE4500110F07A01106F
:10C66000047B0110587801104C7B011054780110A4
:10C67000DC7A0110908001103C650110744F0110AC
:10C68000AD22011070B504000D4B1B78012B01D1B8
:10C690000C4B984722000C490C480D4B984704005E
:10C6A0000500074B1B78012B01D10A4B9847002D41
:10C6B00004D1064B18780449074B9847200070BDF9
:10C6C0004B65011061D20010847E0110487B01107F
:10C6D00049DB001039D200105DC50010F0B54F469F
:10C6E00080B490B008AD07236B701B4C10221B491F
:10C6F000222068441A4B9946984711262E70092724
:10C70000AF74EF740DAA174B03CB03C215236A460F
:10C710005370102211496B46981CC8476B461E7017
:10C720009F74FF236A46D37405AA2300243303CBE6
:10C7300003C21C236A461C2128000B4CA04700287A
:10C7400005D00A480A4B98470A480B4B98470020E7
:10C7500010B004BC9146F0BDD4510110E451011059
:10C760006B21011044560110A9E50010744F01100F
:10C77000AD2201101C5801108D210110014B1860D1
:10C780007047C0463C650110F0B54F464646C0B400
:10C7900083B081460E00174C022398462370601C1C
:10C7A000154D10222900154FB847002363824346D8
:10C7B000A37520001730290014311022B847102328
:10C7C00023854B46E3622686668622223423E25482
:10C7D00021001231333B01932300143300930023D3
:10C7E00000222000064CA04703B00CBC904699469E
:10C7F000F0BDC046948001108C5801106B210110CF
:10C80000D9EF0010F0B583B007000D0016006B469D
:10C81000991D00230B8001AA0233138048331A4864
:10C82000C05A1A4B9847041E07D01948194B98470D
:10C8300019481A4B9847200023E06B4606331B88A3
:10C840000020012B1DD1104B988A32002900144B77
:10C850009847041E07D00E480E4B984711480F4BBF
:10C86000984720000DE0084B998A38000E4B9847F6
:10C87000041E06D00648074B98470C48074B9847BC
:10C88000200003B0F0BDC0469480011035F00010C8
:10C89000744F0110AD220110B45801108D21011008
:10C8A000F9EF0010E858011099F100101C5901101F
:10C8B00010B50E4B1B78012B0BD102220B4B1A70BB
:10C8C0000B4B1B68002B10D102210A480A4B9847DA
:10C8D0000BE0074B1B68002B07D0084C20789847CB
:10C8E000012221000348064B984710BD50750110E6
:10C8F00058750110E480011075B1001054750110D5
:10C9000019B1001070B506000D00034C290030006D
:10C91000A0470028FAD170BD05B1001070B506001F
:10C920000D00034C29003000A0470028FAD170BD4B
:10C93000F5B0001070B500210020194B9847194C34
:10C940002000194B9847E1235B0223600223A36078
:10C950000322E2600132226101326261A361E3617C
:10C9600023626362114D124B1D60124A124B1A6012
:10C97000124A134B1A60220012492800124B9847A2
:10C98000124E336898680021114CA04733685868EC
:10C990000021A04702220F4928000F4B984770BD85
:10C9A00015A10010088101100DAF0010E4800110E6
:10C9B000EC7701101DC90010E877011005C90010BF
:10C9C000E47701100040004039AF0010285C0110EE
:10C9D00039230110B1C8001041B10010F0B583B087
:10C9E00005000D4CA047A0470C4FB8470C4E0D4A10
:10C9F0000D4BB04700900191FA2080006843B84782
:10CA000002000B0000980199B047084B9847084B6B
:10CA1000186003B0F0BDC04699A10010BD1D011003
:10CA2000B5110110C7AEFE19EFD8093F79110110F9
:10CA30004C750110024B1A68501E18607047C046B2
:10CA40004C75011070B504000122114B1A70114B86
:10CA50001B68002B03D102210F48104B9847200080
:10CA60000F4B98470F4900230B7001220A480E4BC9
:10CA70009847074C0D4D2378022B02D0A847002879
:10CA8000F9D10022024B1A70064B187870BDC046CF
:10CA90005075011058750110E480011055B1001057
:10CAA000DDC900105475011019B1001035CA00100D
:10CAB00010B5064B1860064C02212000054B984724
:10CAC000012205492000054B984710BD58750110FB
:10CAD000E480011055B100105475011019B1001017
:10CAE000024B1A68026018607047C04660750110FA
:10CAF00030B50B4B1C68002C11D025681D6000233D
:10CB00002360A160E280A080064B1A68002A02D14F
:10CB10001C6004E01A001368002BFBD1146030BDC8
:10CB2000607501105C750110F0B5574680B482B095
:10CB3000824601911600154B1C68002C08D1144D3B
:10CB40001F000020A84700903C68002CF9D001E0AD
:10CB5000002300930D4B22681A60A388524613806D
:10CB60003288E388191C9BB2934200D9111C8AB207
:10CB70003180A1680198074B98472000064B9847E1
:10CB8000009802B004BC9246F0BDC0465C7501102E
:10CB9000D5CF00106B210110E1CA001070B5002341
:10CBA000064A1360064A1360064C26007836064D86
:10CBB0002000A8470C34B442FAD170BD6075011052
:10CBC0005C75011064750110E1CA001070B50400B5
:10CBD000134B1D68134B1B6898470C2C1FD00C3C43
:10CBE000E388052B1BD0EB0714D40F4B1B680220E6
:10CBF00098470E4B1B6898470D4C032023689847B5
:10CC00000028FAD10B4B1B680230984701220A4BCF
:10CC10001A6004E0094B1868094B1B68984770BDFF
:10CC2000ECB100400C76011004760110147601106E
:10CC3000F0750110F875011020B00040FC7501106E
:10CC4000EC75011010B5064B064A196811605A6858
:10CC5000054B1A60054B1B68002B00D0984710BD90
:10CC6000308101100CB0004010B000400C84011065
:10CC700070B5322200210D480D4B984700210B481A
:10CC8000012502244A001154821853782B43DBB249
:10CC9000A343537001311929F4D1044B5A78183940
:10CCA0008A435A70DA788A43DA7070BD4C81011079
:10CCB0007D210110064A1168064B0B401360064A9D
:10CCC000136006490868064B03400B6053607047C9
:10CCD0000CB00040D30FFEFF3081011010B00040B7
:10CCE000C0E7FFFFF0B557464E464546E0B44F4B10
:10CCF0001B78002B04D04D4B1B78012B00D18CE00E
:10CD00004B4B98474B4B9847002398464A4B42461B
:10CD10001A604A4C8023802212049246E2508022FC
:10CD200052049146E250464D464B2B60464B474AD3
:10CD300013604749474A1160474A1168474A1160E2
:10CD4000474A1168474A11604749484A11604849B3
:10CD5000484A1160484F494A3A604949494A116076
:10CD600049494A4A11604A4E4A4A32604A494B4A46
:10CD700011604B494B4A11604B494C4A11604C4978
:10CD80004C4A11604C494D4A1160282098474C4943
:10CD900028202B6898472B684A49272098474A4BF8
:10CDA0001A684A4B1A604A4A4A4B1A604A4A4B4B25
:10CDB0001A604B4A4B4B1A604B4A4C4B1A604C4A18
:10CDC0004C4B1A604C4A4D4B1A604D4A4D4B1A6001
:10CDD000A022920000214C484C4B984780229200A0
:10CDE0004B4B1A804B4B9847534623604B4623606E
:10CDF000494B42461A603B68484A1A603368484AC1
:10CE00001A600020474CA0470120A0470220A047FD
:10CE10000122064B1A70002003E00122034B1A7016
:10CE200001201CBC90469946A246F0BDF475011045
:10CE300071CC0010B5CC00101076011000E100E0BC
:10CE400000840110D7070000BD0700003C810110DD
:10CE500051BC010004840110BC000410E8750110ED
:10CE6000B8000410E47501109FB901003881011069
:10CE7000DBB9010044810110148401103C0004104E
:10CE8000C01F041048810110C41F04101084011039
:10CE900008840110D41F0410D81F04104081011011
:10CEA000E9CB0100047601108FCD0100F875011067
:10CEB000A3CE010014760110CFCB0100F075011054
:10CEC00059D30010EDD20010E40004100C760110CC
:10CED000E99F01001C760110DDDB0100EC750110FB
:10CEE0005BDC010000760110EC050410FC750110FC
:10CEF000E3D5010008760110200C04102076011003
:10CF0000099F0100E0750110808101107D21011051
:10CF1000188401109DCB00100C84011045CC00102A
:10CF2000B5D300109DD30010044B1A780523012AB5
:10CF300002D1034B1860002318007047F4750110EC
:10CF40001076011070B504000E4B1B68002B02D048
:10CF5000408898476080E388A288618820880A4DCD
:10CF60002D68A8470500E288002A02D1074B9847A0
:10CF700006E021000831064B98472800034B9847EC
:10CF800070BDC046E87501101C760110CDCB0010B5
:10CF90006B21011070B515001C000A0202430A4BF8
:10CFA0001E6823000521A020C000B047061E0AD03D
:10CFB000002C05D0002D03D022002900034B9847F8
:10CFC0003000034B984770BD1C7601106B21011097
:10CFD000CDCB0010F0B55F4656464D464446F0B402
:10CFE00087B0441E00239946E31C1CD80D22002163
:10CFF00002A8824B9847332302AA1370303B537028
:10D0000093700233137193711472230A5372230CB9
:10D010009372240ED472012313730D211000784BE8
:10D0200098470123994600240025764F764E77498C
:10D03000386833689847002800D088E0734B1C6834
:10D04000A3889A46CD239B009A4500D1C7E0238947
:10D050009B46638998464B46002B11D00D22002138
:10D0600002A8664B9847332302AA1370303B5370D3
:10D0700093700233137193710D211000604B984728
:10D08000A023DB009A4521D1614B1B884344A02299
:10D090009200934202DD803A5D4B1A805C4B9A46C7
:10D0A0001D885C4BED1821000C31424628005A4B7C
:10D0B0009847424629005846584B984753461B8884
:10D0C000434452461380002402253AE0544B1B6827
:10D0D000002B32D04D4B1A689388CD2189008B42AA
:10D0E00004D14B460124002B2BD028E04D4C494D58
:10D0F00025602B701B0A6B7010894B4B1B6898477F
:10D100002871000A68712068404B1A68D2884280F2
:10D110001D686B89C380083020606A89002A03D0AB
:10D1200029000C313C4B9847698908313C4B1B68FE
:10D13000384898470024032503E0002401E0002438
:10D14000D025324B1868394B1B68984700E00725FB
:10D15000002C00D06BE74B46002B46D0294B1E68B5
:10D16000002E04D100231C6A002C31D13DE0346A2A
:10D1700014239C46B4446346604600932C4B1B68C2
:10D180009847002C1FD00027CD239B009846274BA3
:10D190009A46200003689B88434510D1002F06D093
:10D1A0008368BB6053461B689847B86809E083688A
:10D1B00033621E4B1B6801939847306A01E00700F9
:10D1C00080680028E6D11B4B1B68009898470CE04C
:10D1D00014230093164B1B6814209847D3E7104B79
:10D1E0001B680024002BACD07BE7280007B03CBCB8
:10D1F00090469946A246AB46F0BDC0467D2101103F
:10D2000045CF00102076011008760110DC75011062
:10D2100018840110808101106B210110F1CA0010E7
:10D220001076011018760110E4750110E0750110F8
:10D2300000760110EC75011010B5034B1B688020BF
:10D2400000029847082010BD3881011010B5034B2B
:10D250001B688020C0019847002010BD4481011048
:10D2600010B5054C8020C0012368984723688020B2
:10D2700000029847002010BD4481011030B5184AC3
:10D28000138F9BB2108D802109020143118510007C
:10D29000144D01240022DB05DB0D11D0DBB2594215
:10D2A0000B40012B06D011005B080131C9B2012BE4
:10D2B000FAD100E0110023008B409BB2038703E00A
:10D2C000038F2B439BB20387038FDB05DB0DE2D17A
:10D2D000802149008133FF33034AD15030BDC0461D
:10D2E000001001400080FFFF00E100E030B5174A68
:10D2F000138F9BB2108D802109020143118510000C
:10D30000134D01240022DB05DB0D11D0DBB25942A5
:10D310000B40012B06D011005B080131C9B2012B73
:10D32000FAD100E0110023008B409BB2038703E099
:10D33000038F2B439BB20387038FDB05DB0DE2D109
:10D3400080218133FF33034AD15030BD00000140BA
:10D350000080FFFF00E100E010B50C4B1B8F5B0B62
:10D3600010D00B4B1B689847084A138F118F5B0B2B
:10D370005B030B43138780214900C0235B00054AF0
:10D38000D15001E0044B984710BDC0460010014049
:10D390000484011000E100E07DD200100323022884
:10D3A00004D880000022024BC250002318007047AE
:10D3B0001C84011010B504000378012B08D1114B17
:10D3C0001B68002B00D09847FF2322689A432260F5
:10D3D0006378012B08D10B4B5B68002B00D098477A
:10D3E000094B226813402360A378012B08D1054B19
:10D3F0009B68002B00D09847044B226813402360A1
:10D4000010BDC0461C840110FF00FFFFFFFF00FF9E
:10D410000020704770B5002912D056685578040076
:10D420000139C9B201314018002223785B1B9B00EF
:10D430009B5D0133D218D2B201348442F5D100E0B1
:10D44000002252084020821AD0B270BD10B5024BA3
:10D450009847002010BDC04625B5001070B50D28B6
:10D4600018D1194B1B88002B2DD0184C22000121FC
:10D470000B38174DA847962200212000154B9847DE
:10D480000022114B1A801448144B98472020144B4B
:10D49000984718E00C4C23885A1C22800B4AD05421
:10D4A0000F4B98472388952B0DD9084C220001215A
:10D4B0000220074DA847962200212000054B9847DF
:10D4C0000022014B1A8070BD26760110609C01106D
:10D4D00095CF00107D210110744F0110AD22011075
:10D4E000C121011010B5A8B09622002101A80A4B55
:10D4F00098479E246C4427AA01A92000074B98470F
:10D50000228881235B009A4204D127AB198801A8A5
:10D51000034B984728B010BD7D21011029CB001086
:10D52000F5B40010F0B5474680B486B00400204E34
:10D530003000204DA8473000A84726682379984638
:10D54000002B15D06A46D382D58A002D0AD034002C
:10D55000013DADB201357519174F2078B847013438
:10D56000AC42FAD1124D2800124CA0472800A04727
:10D57000124B1B680393124B1B780293114B1B78C1
:10D5800001930124009401230F4A414630000F4DBE
:10D59000A8470F4B1C703378742B05D172780D4B54
:10D5A0001A70B2780C4B1A7006B004BC9046F0BDED
:10D5B000744F0110AD220110C1210110B05B0110A8
:10D5C0001146011010460110608401108D8A001070
:10D5D00024760110C05B0110BC5B011010B5162051
:10D5E000014B984710BDC046E59D001010B51420B2
:10D5F000014B984710BDC046E59D0010F0B55F4651
:10D6000056464D46E0B48CB04648474B9847474B8A
:10D610001B780A2B06D9464A127846490AA8464C76
:10D62000A04705E0424A127844490AA8424CA04764
:10D630000AA8434B9A469847C7B2424B1C6822003F
:10D6400039000AA8404B9946984703003F4A15788D
:10D650003F4A16780394029601951C220092314AA3
:10D6600039000AA83B4CA0473B4B1B783B4A127839
:10D6700092003B4952583B49097889003A48095879
:10D6800000913A4907A82C4FB84707A8D047C3B222
:10D690001900374B1F683A00059107A8C8470300D7
:10D6A000039702960195012200921E4A059907A848
:10D6B000A04700954B23782208211A482D4FB847E0
:10D6C0002D4B1B689B461A0014212C48C8470300A9
:10D6D0005A460392029601954E220092114A142155
:10D6E0002648A04700955E23782208210D48B847B8
:10D6F000234B01AA03CB03C200962B0060220C210E
:10D700000848204DA847204B8022012105481F4C86
:10D71000A04700221E4B1A700CB01CBC91469A46C2
:10D72000A346F0BD608401103D980010BC5B011061
:10D73000C05B011070590110AD240110785901101F
:10D74000F1240110B85B011015D40010104601102F
:10D75000114601108D8A0010BE5B0110BF5B0110E5
:10D76000205A0110C15B0110405901108459011069
:10D77000B45B011011950010B05B011090590110BD
:10D780003037011041950010288401102D970010AA
:10D790002576011010B501220D4B1A700D4B1B7828
:10D7A0003A2B03D801330B4A13700DE00022094BCA
:10D7B0001A70094B1B78162B03D80133064A1370D5
:10D7C00002E00022044B1A70044B984710BDC0467B
:10D7D00025760110BC5B0110C05B0110FDD5001067
:10D7E000F0B55F4656464D464446F0B489B05F4BAF
:10D7F00098475F4B98475F4B98475F485F4B984708
:10D800005F48604B984796215F48604B98470020DF
:10D810005F4B984700205F4B98475F4B98475F4AA4
:10D82000002100205E4B98475E485F4B98475F4859
:10D830005F4B98475F48604B9847604A13680127E1
:10D84000BB43136001AC20005D4B9847F0235B03A2
:10D8500063600025657002239A4623702000594BAF
:10D8600098475948594B9847594B994680231B056F
:10D870004A4613606846574B9B4698476B461F7055
:10D8800069461020544EB04769461420B047694697
:10D890001620B04700211020504B98469847002191
:10D8A0001420C04700211620C0472000D84725700B
:10D8B0006570E77021001D20B047494B9847022250
:10D8C00048491D20484B98471D20484B9847200049
:10D8D000474B9847A560474B6361E5706570E573FA
:10D8E000534663732000444B984744490120444BFE
:10D8F00098478023DB014A46136030BFC046414C45
:10D900002000414B98472000404DA8472000A847E1
:10D910002000A8473E483F4B98473F4B98473F4B16
:10D920001B78002B1AD03E4E3E4D3B4C012040420E
:10D93000B0472B78002B00D0A0473B4B1B78002B27
:10D9400005D0304B802201213148384FB8470022A2
:10D95000354B1A70314B1B78002BE7D1002009B0F2
:10D960003CBC90469946A246AB46F0BDE5CC0010C3
:10D9700039D2001035C90010744F0110AD220110CA
:10D98000A85901108D210110609C01107DB4001078
:10D9900041BF001089B4001025B500103C5A011099
:10D9A00071BE001025D5001081B50010E5D400101F
:10D9B0007DC700105DD40010B1CA001010E000E077
:10D9C000E98000103181001095D7001025810010EA
:10D9D00000E100E0919B0010A19B0010599D0010F8
:10D9E000A9A00010DDD500107D9F00104DA00010F3
:10D9F000A198001040AC270025990010EDD500102B
:10DA0000299A001028840110B9960010FD97001083
:10DA1000608401103D980010FDD50010BD5B011021
:10DA200085C6001025760110247601102D97001070
:10DA300070B5124D2C68002C14D02668E2602E6060
:10DA400000250F4A238113682560A080E180AB4246
:10DA500001D1146011E01A68002A01D0131CFAE702
:10DA60001C600AE0C4B2002C07D1064CE26001221F
:10DA70002381054BA080E1801A7070BD40760110B3
:10DA80003C760110287601103876011010B5084B4D
:10DA9000000900011A680818814203D00A600A1CB4
:10DAA0001031F9E71A600022024B1A6010BDC0461F
:10DAB000407601103C76011038B51B4C031C2588BC
:10DAC000081C211C9D4207D1A588854204D1012351
:10DAD0005B422380A26009E04C889C420AD18C887A
